{"abi":[{"inputs":[{"internalType":"uint256","name":"amount","type":"uint256"},{"internalType":"address","name":"founder","type":"address"}],"stateMutability":"nonpayable","type":"constructor"},{"inputs":[{"internalType":"uint256","name":"index","type":"uint256"}],"name":"approveRequest","outputs":[],"stateMutability":"nonpayable","type":"function"},{"inputs":[{"internalType":"string","name":"description","type":"string"},{"internalType":"uint256","name":"value","type":"uint256"},{"internalType":"address","name":"recipient","type":"address"}],"name":"createRequest","outputs":[],"stateMutability":"nonpayable","type":"function"},{"inputs":[{"internalType":"uint256","name":"index","type":"uint256"}],"name":"finaliseRequest","outputs":[],"stateMutability":"nonpayable","type":"function"},{"inputs":[],"name":"getRequestsCount","outputs":[{"internalType":"uint256","name":"","type":"uint256"}],"stateMutability":"view","type":"function"},{"inputs":[],"name":"getSummary","outputs":[{"internalType":"uint256","name":"","type":"uint256"},{"internalType":"uint256","name":"","type":"uint256"},{"internalType":"uint256","name":"","type":"uint256"},{"internalType":"uint256","name":"","type":"uint256"},{"internalType":"address","name":"","type":"address"}],"stateMutability":"view","type":"function"},{"inputs":[],"name":"invest","outputs":[],"stateMutability":"payable","type":"function"},{"inputs":[],"name":"investorCount","outputs":[{"internalType":"uint256","name":"","type":"uint256"}],"stateMutability":"view","type":"function"},{"inputs":[{"internalType":"address","name":"","type":"address"}],"name":"investors","outputs":[{"internalType":"bool","name":"","type":"bool"}],"stateMutability":"view","type":"function"},{"inputs":[],"name":"manager","outputs":[{"internalType":"address","name":"","type":"address"}],"stateMutability":"view","type":"function"},{"inputs":[],"name":"minimumAmount","outputs":[{"internalType":"uint256","name":"","type":"uint256"}],"stateMutability":"view","type":"function"},{"inputs":[{"internalType":"uint256","name":"","type":"uint256"}],"name":"requests","outputs":[{"internalType":"string","name":"description","type":"string"},{"internalType":"uint256","name":"value","type":"uint256"},{"internalType":"address","name":"recipient","type":"address"},{"internalType":"bool","name":"status","type":"bool"},{"internalType":"uint256","name":"approvalCount","type":"uint256"}],"stateMutability":"view","type":"function"}],"devdoc":{"kind":"dev","methods":{},"version":1},"evm":{"assembly":"    /* \"Campaign.sol\":400:2416  contract Startup{... */\n  mstore(0x40, 0x80)\n    /* \"Campaign.sol\":870:978  constructor(uint amount, address founder) {... */\n  callvalue\n  dup1\n  iszero\n  tag_1\n  jumpi\n  0x00\n  dup1\n  revert\ntag_1:\n  pop\n  mload(0x40)\n  sub(codesize, bytecodeSize)\n  dup1\n  bytecodeSize\n  dup4\n  codecopy\n  dup2\n  dup2\n  add\n  0x40\n  mstore\n  dup2\n  add\n  swap1\n  tag_2\n  swap2\n  swap1\n  tag_3\n  jump\t// in\ntag_2:\n    /* \"Campaign.sol\":932:939  founder */\n  dup1\n    /* \"Campaign.sol\":922:929  manager */\n  0x01\n  0x00\n    /* \"Campaign.sol\":922:939  manager = founder */\n  0x0100\n  exp\n  dup2\n  sload\n  dup2\n  0xffffffffffffffffffffffffffffffffffffffff\n  mul\n  not\n  and\n  swap1\n  dup4\n  0xffffffffffffffffffffffffffffffffffffffff\n  and\n  mul\n  or\n  swap1\n  sstore\n  pop\n    /* \"Campaign.sol\":965:971  amount */\n  dup2\n    /* \"Campaign.sol\":949:962  minimumAmount */\n  0x02\n    /* \"Campaign.sol\":949:971  minimumAmount = amount */\n  dup2\n  swap1\n  sstore\n  pop\n    /* \"Campaign.sol\":870:978  constructor(uint amount, address founder) {... */\n  pop\n  pop\n    /* \"Campaign.sol\":400:2416  contract Startup{... */\n  jump(tag_6)\n    /* \"#utility.yul\":88:205   */\ntag_8:\n    /* \"#utility.yul\":197:198   */\n  0x00\n    /* \"#utility.yul\":194:195   */\n  dup1\n    /* \"#utility.yul\":187:199   */\n  revert\n    /* \"#utility.yul\":334:411   */\ntag_10:\n    /* \"#utility.yul\":371:378   */\n  0x00\n    /* \"#utility.yul\":400:405   */\n  dup2\n    /* \"#utility.yul\":389:405   */\n  swap1\n  pop\n    /* \"#utility.yul\":334:411   */\n  swap2\n  swap1\n  pop\n  jump\t// out\n    /* \"#utility.yul\":417:539   */\ntag_11:\n    /* \"#utility.yul\":490:514   */\n  tag_23\n    /* \"#utility.yul\":508:513   */\n  dup2\n    /* \"#utility.yul\":490:514   */\n  tag_10\n  jump\t// in\ntag_23:\n    /* \"#utility.yul\":483:488   */\n  dup2\n    /* \"#utility.yul\":480:515   */\n  eq\n    /* \"#utility.yul\":470:533   */\n  tag_24\n  jumpi\n    /* \"#utility.yul\":529:530   */\n  0x00\n    /* \"#utility.yul\":526:527   */\n  dup1\n    /* \"#utility.yul\":519:531   */\n  revert\n    /* \"#utility.yul\":470:533   */\ntag_24:\n    /* \"#utility.yul\":417:539   */\n  pop\n  jump\t// out\n    /* \"#utility.yul\":545:688   */\ntag_12:\n    /* \"#utility.yul\":602:607   */\n  0x00\n    /* \"#utility.yul\":633:639   */\n  dup2\n    /* \"#utility.yul\":627:640   */\n  mload\n    /* \"#utility.yul\":618:640   */\n  swap1\n  pop\n    /* \"#utility.yul\":649:682   */\n  tag_26\n    /* \"#utility.yul\":676:681   */\n  dup2\n    /* \"#utility.yul\":649:682   */\n  tag_11\n  jump\t// in\ntag_26:\n    /* \"#utility.yul\":545:688   */\n  swap3\n  swap2\n  pop\n  pop\n  jump\t// out\n    /* \"#utility.yul\":694:820   */\ntag_13:\n    /* \"#utility.yul\":731:738   */\n  0x00\n    /* \"#utility.yul\":771:813   */\n  0xffffffffffffffffffffffffffffffffffffffff\n    /* \"#utility.yul\":764:769   */\n  dup3\n    /* \"#utility.yul\":760:814   */\n  and\n    /* \"#utility.yul\":749:814   */\n  swap1\n  pop\n    /* \"#utility.yul\":694:820   */\n  swap2\n  swap1\n  pop\n  jump\t// out\n    /* \"#utility.yul\":826:922   */\ntag_14:\n    /* \"#utility.yul\":863:870   */\n  0x00\n    /* \"#utility.yul\":892:916   */\n  tag_29\n    /* \"#utility.yul\":910:915   */\n  dup3\n    /* \"#utility.yul\":892:916   */\n  tag_13\n  jump\t// in\ntag_29:\n    /* \"#utility.yul\":881:916   */\n  swap1\n  pop\n    /* \"#utility.yul\":826:922   */\n  swap2\n  swap1\n  pop\n  jump\t// out\n    /* \"#utility.yul\":928:1050   */\ntag_15:\n    /* \"#utility.yul\":1001:1025   */\n  tag_31\n    /* \"#utility.yul\":1019:1024   */\n  dup2\n    /* \"#utility.yul\":1001:1025   */\n  tag_14\n  jump\t// in\ntag_31:\n    /* \"#utility.yul\":994:999   */\n  dup2\n    /* \"#utility.yul\":991:1026   */\n  eq\n    /* \"#utility.yul\":981:1044   */\n  tag_32\n  jumpi\n    /* \"#utility.yul\":1040:1041   */\n  0x00\n    /* \"#utility.yul\":1037:1038   */\n  dup1\n    /* \"#utility.yul\":1030:1042   */\n  revert\n    /* \"#utility.yul\":981:1044   */\ntag_32:\n    /* \"#utility.yul\":928:1050   */\n  pop\n  jump\t// out\n    /* \"#utility.yul\":1056:1199   */\ntag_16:\n    /* \"#utility.yul\":1113:1118   */\n  0x00\n    /* \"#utility.yul\":1144:1150   */\n  dup2\n    /* \"#utility.yul\":1138:1151   */\n  mload\n    /* \"#utility.yul\":1129:1151   */\n  swap1\n  pop\n    /* \"#utility.yul\":1160:1193   */\n  tag_34\n    /* \"#utility.yul\":1187:1192   */\n  dup2\n    /* \"#utility.yul\":1160:1193   */\n  tag_15\n  jump\t// in\ntag_34:\n    /* \"#utility.yul\":1056:1199   */\n  swap3\n  swap2\n  pop\n  pop\n  jump\t// out\n    /* \"#utility.yul\":1205:1712   */\ntag_3:\n    /* \"#utility.yul\":1284:1290   */\n  0x00\n    /* \"#utility.yul\":1292:1298   */\n  dup1\n    /* \"#utility.yul\":1341:1343   */\n  0x40\n    /* \"#utility.yul\":1329:1338   */\n  dup4\n    /* \"#utility.yul\":1320:1327   */\n  dup6\n    /* \"#utility.yul\":1316:1339   */\n  sub\n    /* \"#utility.yul\":1312:1344   */\n  slt\n    /* \"#utility.yul\":1309:1428   */\n  iszero\n  tag_36\n  jumpi\n    /* \"#utility.yul\":1347:1426   */\n  tag_37\n  tag_8\n  jump\t// in\ntag_37:\n    /* \"#utility.yul\":1309:1428   */\ntag_36:\n    /* \"#utility.yul\":1467:1468   */\n  0x00\n    /* \"#utility.yul\":1492:1556   */\n  tag_38\n    /* \"#utility.yul\":1548:1555   */\n  dup6\n    /* \"#utility.yul\":1539:1545   */\n  dup3\n    /* \"#utility.yul\":1528:1537   */\n  dup7\n    /* \"#utility.yul\":1524:1546   */\n  add\n    /* \"#utility.yul\":1492:1556   */\n  tag_12\n  jump\t// in\ntag_38:\n    /* \"#utility.yul\":1482:1556   */\n  swap3\n  pop\n    /* \"#utility.yul\":1438:1566   */\n  pop\n    /* \"#utility.yul\":1605:1607   */\n  0x20\n    /* \"#utility.yul\":1631:1695   */\n  tag_39\n    /* \"#utility.yul\":1687:1694   */\n  dup6\n    /* \"#utility.yul\":1678:1684   */\n  dup3\n    /* \"#utility.yul\":1667:1676   */\n  dup7\n    /* \"#utility.yul\":1663:1685   */\n  add\n    /* \"#utility.yul\":1631:1695   */\n  tag_16\n  jump\t// in\ntag_39:\n    /* \"#utility.yul\":1621:1695   */\n  swap2\n  pop\n    /* \"#utility.yul\":1576:1705   */\n  pop\n    /* \"#utility.yul\":1205:1712   */\n  swap3\n  pop\n  swap3\n  swap1\n  pop\n  jump\t// out\n    /* \"Campaign.sol\":400:2416  contract Startup{... */\ntag_6:\n  dataSize(sub_0)\n  dup1\n  dataOffset(sub_0)\n  0x00\n  codecopy\n  0x00\n  return\nstop\n\nsub_0: assembly {\n        /* \"Campaign.sol\":400:2416  contract Startup{... */\n      mstore(0x40, 0x80)\n      jumpi(tag_1, lt(calldatasize, 0x04))\n      shr(0xe0, calldataload(0x00))\n      dup1\n      0x8a9cfd55\n      gt\n      tag_13\n      jumpi\n      dup1\n      0x8a9cfd55\n      eq\n      tag_7\n      jumpi\n      dup1\n      0xbb0c8298\n      eq\n      tag_8\n      jumpi\n      dup1\n      0xd7d1bbdb\n      eq\n      tag_9\n      jumpi\n      dup1\n      0xd7e64c00\n      eq\n      tag_10\n      jumpi\n      dup1\n      0xe7b668b4\n      eq\n      tag_11\n      jumpi\n      dup1\n      0xe8b5e51f\n      eq\n      tag_12\n      jumpi\n      jump(tag_1)\n    tag_13:\n      dup1\n      0x3410452a\n      eq\n      tag_2\n      jumpi\n      dup1\n      0x4051ddac\n      eq\n      tag_3\n      jumpi\n      dup1\n      0x481c6a75\n      eq\n      tag_4\n      jumpi\n      dup1\n      0x6f7bc9be\n      eq\n      tag_5\n      jumpi\n      dup1\n      0x81d12c58\n      eq\n      tag_6\n      jumpi\n    tag_1:\n      0x00\n      dup1\n      revert\n        /* \"Campaign.sol\":2320:2413  function getRequestsCount() public view returns(uint){... */\n    tag_2:\n      callvalue\n      dup1\n      iszero\n      tag_14\n      jumpi\n      0x00\n      dup1\n      revert\n    tag_14:\n      pop\n      tag_15\n      tag_16\n      jump\t// in\n    tag_15:\n      mload(0x40)\n      tag_17\n      swap2\n      swap1\n      tag_18\n      jump\t// in\n    tag_17:\n      mload(0x40)\n      dup1\n      swap2\n      sub\n      swap1\n      return\n        /* \"Campaign.sol\":2068:2314  function getSummary() public view returns(uint, uint, uint, uint, address){... */\n    tag_3:\n      callvalue\n      dup1\n      iszero\n      tag_19\n      jumpi\n      0x00\n      dup1\n      revert\n    tag_19:\n      pop\n      tag_20\n      tag_21\n      jump\t// in\n    tag_20:\n      mload(0x40)\n      tag_22\n      swap6\n      swap5\n      swap4\n      swap3\n      swap2\n      swap1\n      tag_23\n      jump\t// in\n    tag_22:\n      mload(0x40)\n      dup1\n      swap2\n      sub\n      swap1\n      return\n        /* \"Campaign.sol\":647:669  address public manager */\n    tag_4:\n      callvalue\n      dup1\n      iszero\n      tag_24\n      jumpi\n      0x00\n      dup1\n      revert\n    tag_24:\n      pop\n      tag_25\n      tag_26\n      jump\t// in\n    tag_25:\n      mload(0x40)\n      tag_27\n      swap2\n      swap1\n      tag_28\n      jump\t// in\n    tag_27:\n      mload(0x40)\n      dup1\n      swap2\n      sub\n      swap1\n      return\n        /* \"Campaign.sol\":706:747  mapping(address => bool) public investors */\n    tag_5:\n      callvalue\n      dup1\n      iszero\n      tag_29\n      jumpi\n      0x00\n      dup1\n      revert\n    tag_29:\n      pop\n      tag_30\n      0x04\n      dup1\n      calldatasize\n      sub\n      dup2\n      add\n      swap1\n      tag_31\n      swap2\n      swap1\n      tag_32\n      jump\t// in\n    tag_31:\n      tag_33\n      jump\t// in\n    tag_30:\n      mload(0x40)\n      tag_34\n      swap2\n      swap1\n      tag_35\n      jump\t// in\n    tag_34:\n      mload(0x40)\n      dup1\n      swap2\n      sub\n      swap1\n      return\n        /* \"Campaign.sol\":616:641  Request[] public requests */\n    tag_6:\n      callvalue\n      dup1\n      iszero\n      tag_36\n      jumpi\n      0x00\n      dup1\n      revert\n    tag_36:\n      pop\n      tag_37\n      0x04\n      dup1\n      calldatasize\n      sub\n      dup2\n      add\n      swap1\n      tag_38\n      swap2\n      swap1\n      tag_39\n      jump\t// in\n    tag_38:\n      tag_40\n      jump\t// in\n    tag_37:\n      mload(0x40)\n      tag_41\n      swap6\n      swap5\n      swap4\n      swap3\n      swap2\n      swap1\n      tag_42\n      jump\t// in\n    tag_41:\n      mload(0x40)\n      dup1\n      swap2\n      sub\n      swap1\n      return\n        /* \"Campaign.sol\":1136:1492  function createRequest(string memory description, uint value, address recipient) public restricted(){... */\n    tag_7:\n      callvalue\n      dup1\n      iszero\n      tag_43\n      jumpi\n      0x00\n      dup1\n      revert\n    tag_43:\n      pop\n      tag_44\n      0x04\n      dup1\n      calldatasize\n      sub\n      dup2\n      add\n      swap1\n      tag_45\n      swap2\n      swap1\n      tag_46\n      jump\t// in\n    tag_45:\n      tag_47\n      jump\t// in\n    tag_44:\n      stop\n        /* \"Campaign.sol\":675:700  uint public minimumAmount */\n    tag_8:\n      callvalue\n      dup1\n      iszero\n      tag_48\n      jumpi\n      0x00\n      dup1\n      revert\n    tag_48:\n      pop\n      tag_49\n      tag_50\n      jump\t// in\n    tag_49:\n      mload(0x40)\n      tag_51\n      swap2\n      swap1\n      tag_18\n      jump\t// in\n    tag_51:\n      mload(0x40)\n      dup1\n      swap2\n      sub\n      swap1\n      return\n        /* \"Campaign.sol\":1498:1768  function approveRequest(uint index) public{... */\n    tag_9:\n      callvalue\n      dup1\n      iszero\n      tag_52\n      jumpi\n      0x00\n      dup1\n      revert\n    tag_52:\n      pop\n      tag_53\n      0x04\n      dup1\n      calldatasize\n      sub\n      dup2\n      add\n      swap1\n      tag_54\n      swap2\n      swap1\n      tag_39\n      jump\t// in\n    tag_54:\n      tag_55\n      jump\t// in\n    tag_53:\n      stop\n        /* \"Campaign.sol\":753:778  uint public investorCount */\n    tag_10:\n      callvalue\n      dup1\n      iszero\n      tag_56\n      jumpi\n      0x00\n      dup1\n      revert\n    tag_56:\n      pop\n      tag_57\n      tag_58\n      jump\t// in\n    tag_57:\n      mload(0x40)\n      tag_59\n      swap2\n      swap1\n      tag_18\n      jump\t// in\n    tag_59:\n      mload(0x40)\n      dup1\n      swap2\n      sub\n      swap1\n      return\n        /* \"Campaign.sol\":1773:2062  function finaliseRequest(uint index) public{... */\n    tag_11:\n      callvalue\n      dup1\n      iszero\n      tag_60\n      jumpi\n      0x00\n      dup1\n      revert\n    tag_60:\n      pop\n      tag_61\n      0x04\n      dup1\n      calldatasize\n      sub\n      dup2\n      add\n      swap1\n      tag_62\n      swap2\n      swap1\n      tag_39\n      jump\t// in\n    tag_62:\n      tag_63\n      jump\t// in\n    tag_61:\n      stop\n        /* \"Campaign.sol\":984:1130  function invest() public payable{... */\n    tag_12:\n      tag_64\n      tag_65\n      jump\t// in\n    tag_64:\n      stop\n        /* \"Campaign.sol\":2320:2413  function getRequestsCount() public view returns(uint){... */\n    tag_16:\n        /* \"Campaign.sol\":2368:2372  uint */\n      0x00\n        /* \"Campaign.sol\":2390:2398  requests */\n      dup1\n        /* \"Campaign.sol\":2390:2405  requests.length */\n      dup1\n      sload\n      swap1\n      pop\n        /* \"Campaign.sol\":2383:2406  return(requests.length) */\n      swap1\n      pop\n        /* \"Campaign.sol\":2320:2413  function getRequestsCount() public view returns(uint){... */\n      swap1\n      jump\t// out\n        /* \"Campaign.sol\":2068:2314  function getSummary() public view returns(uint, uint, uint, uint, address){... */\n    tag_21:\n        /* \"Campaign.sol\":2110:2114  uint */\n      0x00\n        /* \"Campaign.sol\":2116:2120  uint */\n      dup1\n        /* \"Campaign.sol\":2122:2126  uint */\n      0x00\n        /* \"Campaign.sol\":2128:2132  uint */\n      dup1\n        /* \"Campaign.sol\":2134:2141  address */\n      0x00\n        /* \"Campaign.sol\":2172:2185  minimumAmount */\n      sload(0x02)\n        /* \"Campaign.sol\":2199:2220  address(this).balance */\n      selfbalance\n        /* \"Campaign.sol\":2234:2242  requests */\n      0x00\n        /* \"Campaign.sol\":2234:2249  requests.length */\n      dup1\n      sload\n      swap1\n      pop\n        /* \"Campaign.sol\":2263:2276  investorCount */\n      sload(0x04)\n        /* \"Campaign.sol\":2290:2297  manager */\n      0x01\n      0x00\n      swap1\n      sload\n      swap1\n      0x0100\n      exp\n      swap1\n      div\n      0xffffffffffffffffffffffffffffffffffffffff\n      and\n        /* \"Campaign.sol\":2152:2307  return(... */\n      swap5\n      pop\n      swap5\n      pop\n      swap5\n      pop\n      swap5\n      pop\n      swap5\n      pop\n        /* \"Campaign.sol\":2068:2314  function getSummary() public view returns(uint, uint, uint, uint, address){... */\n      swap1\n      swap2\n      swap3\n      swap4\n      swap5\n      jump\t// out\n        /* \"Campaign.sol\":647:669  address public manager */\n    tag_26:\n      0x01\n      0x00\n      swap1\n      sload\n      swap1\n      0x0100\n      exp\n      swap1\n      div\n      0xffffffffffffffffffffffffffffffffffffffff\n      and\n      dup2\n      jump\t// out\n        /* \"Campaign.sol\":706:747  mapping(address => bool) public investors */\n    tag_33:\n      mstore(0x20, 0x03)\n      dup1\n      0x00\n      mstore\n      keccak256(0x00, 0x40)\n      0x00\n      swap2\n      pop\n      sload\n      swap1\n      0x0100\n      exp\n      swap1\n      div\n      0xff\n      and\n      dup2\n      jump\t// out\n        /* \"Campaign.sol\":616:641  Request[] public requests */\n    tag_40:\n      0x00\n      dup2\n      dup2\n      sload\n      dup2\n      lt\n      tag_68\n      jumpi\n      0x00\n      dup1\n      revert\n    tag_68:\n      swap1\n      0x00\n      mstore\n      keccak256(0x00, 0x20)\n      swap1\n      0x05\n      mul\n      add\n      0x00\n      swap2\n      pop\n      swap1\n      pop\n      dup1\n      0x00\n      add\n      dup1\n      sload\n      tag_70\n      swap1\n      tag_71\n      jump\t// in\n    tag_70:\n      dup1\n      0x1f\n      add\n      0x20\n      dup1\n      swap2\n      div\n      mul\n      0x20\n      add\n      mload(0x40)\n      swap1\n      dup2\n      add\n      0x40\n      mstore\n      dup1\n      swap3\n      swap2\n      swap1\n      dup2\n      dup2\n      mstore\n      0x20\n      add\n      dup3\n      dup1\n      sload\n      tag_72\n      swap1\n      tag_71\n      jump\t// in\n    tag_72:\n      dup1\n      iszero\n      tag_73\n      jumpi\n      dup1\n      0x1f\n      lt\n      tag_74\n      jumpi\n      0x0100\n      dup1\n      dup4\n      sload\n      div\n      mul\n      dup4\n      mstore\n      swap2\n      0x20\n      add\n      swap2\n      jump(tag_73)\n    tag_74:\n      dup3\n      add\n      swap2\n      swap1\n      0x00\n      mstore\n      keccak256(0x00, 0x20)\n      swap1\n    tag_75:\n      dup2\n      sload\n      dup2\n      mstore\n      swap1\n      0x01\n      add\n      swap1\n      0x20\n      add\n      dup1\n      dup4\n      gt\n      tag_75\n      jumpi\n      dup3\n      swap1\n      sub\n      0x1f\n      and\n      dup3\n      add\n      swap2\n    tag_73:\n      pop\n      pop\n      pop\n      pop\n      pop\n      swap1\n      dup1\n      0x01\n      add\n      sload\n      swap1\n      dup1\n      0x02\n      add\n      0x00\n      swap1\n      sload\n      swap1\n      0x0100\n      exp\n      swap1\n      div\n      0xffffffffffffffffffffffffffffffffffffffff\n      and\n      swap1\n      dup1\n      0x02\n      add\n      0x14\n      swap1\n      sload\n      swap1\n      0x0100\n      exp\n      swap1\n      div\n      0xff\n      and\n      swap1\n      dup1\n      0x03\n      add\n      sload\n      swap1\n      pop\n      dup6\n      jump\t// out\n        /* \"Campaign.sol\":1136:1492  function createRequest(string memory description, uint value, address recipient) public restricted(){... */\n    tag_47:\n        /* \"Campaign.sol\":838:845  manager */\n      0x01\n      0x00\n      swap1\n      sload\n      swap1\n      0x0100\n      exp\n      swap1\n      div\n      0xffffffffffffffffffffffffffffffffffffffff\n      and\n        /* \"Campaign.sol\":824:845  msg.sender == manager */\n      0xffffffffffffffffffffffffffffffffffffffff\n      and\n        /* \"Campaign.sol\":824:834  msg.sender */\n      caller\n        /* \"Campaign.sol\":824:845  msg.sender == manager */\n      0xffffffffffffffffffffffffffffffffffffffff\n      and\n      eq\n        /* \"Campaign.sol\":816:846  require(msg.sender == manager) */\n      tag_77\n      jumpi\n      0x00\n      dup1\n      revert\n    tag_77:\n        /* \"Campaign.sol\":1246:1272  Request storage newRequest */\n      0x00\n        /* \"Campaign.sol\":1275:1283  requests */\n      dup1\n        /* \"Campaign.sol\":1275:1290  requests.push() */\n      0x01\n      dup2\n      0x01\n      dup2\n      sload\n      add\n      dup1\n      dup3\n      sstore\n      dup1\n      swap2\n      pop\n      pop\n      sub\n      swap1\n      0x00\n      mstore\n      keccak256(0x00, 0x20)\n      swap1\n      0x05\n      mul\n      add\n        /* \"Campaign.sol\":1246:1290  Request storage newRequest = requests.push() */\n      swap1\n      pop\n        /* \"Campaign.sol\":1325:1336  description */\n      dup4\n        /* \"Campaign.sol\":1300:1310  newRequest */\n      dup2\n        /* \"Campaign.sol\":1300:1322  newRequest.description */\n      0x00\n      add\n        /* \"Campaign.sol\":1300:1336  newRequest.description = description */\n      swap1\n      dup1\n      mload\n      swap1\n      0x20\n      add\n      swap1\n      tag_80\n      swap3\n      swap2\n      swap1\n      tag_81\n      jump\t// in\n    tag_80:\n      pop\n        /* \"Campaign.sol\":1365:1370  value */\n      dup3\n        /* \"Campaign.sol\":1346:1356  newRequest */\n      dup2\n        /* \"Campaign.sol\":1346:1362  newRequest.value */\n      0x01\n      add\n        /* \"Campaign.sol\":1346:1370  newRequest.value = value */\n      dup2\n      swap1\n      sstore\n      pop\n        /* \"Campaign.sol\":1403:1412  recipient */\n      dup2\n        /* \"Campaign.sol\":1380:1390  newRequest */\n      dup2\n        /* \"Campaign.sol\":1380:1400  newRequest.recipient */\n      0x02\n      add\n      0x00\n        /* \"Campaign.sol\":1380:1412  newRequest.recipient = recipient */\n      0x0100\n      exp\n      dup2\n      sload\n      dup2\n      0xffffffffffffffffffffffffffffffffffffffff\n      mul\n      not\n      and\n      swap1\n      dup4\n      0xffffffffffffffffffffffffffffffffffffffff\n      and\n      mul\n      or\n      swap1\n      sstore\n      pop\n        /* \"Campaign.sol\":1442:1447  false */\n      0x00\n        /* \"Campaign.sol\":1422:1432  newRequest */\n      dup2\n        /* \"Campaign.sol\":1422:1439  newRequest.status */\n      0x02\n      add\n      0x14\n        /* \"Campaign.sol\":1422:1447  newRequest.status = false */\n      0x0100\n      exp\n      dup2\n      sload\n      dup2\n      0xff\n      mul\n      not\n      and\n      swap1\n      dup4\n      iszero\n      iszero\n      mul\n      or\n      swap1\n      sstore\n      pop\n        /* \"Campaign.sol\":1484:1485  0 */\n      0x00\n        /* \"Campaign.sol\":1457:1467  newRequest */\n      dup2\n        /* \"Campaign.sol\":1457:1481  newRequest.approvalCount */\n      0x03\n      add\n        /* \"Campaign.sol\":1457:1485  newRequest.approvalCount = 0 */\n      dup2\n      swap1\n      sstore\n      pop\n        /* \"Campaign.sol\":1236:1492  {... */\n      pop\n        /* \"Campaign.sol\":1136:1492  function createRequest(string memory description, uint value, address recipient) public restricted(){... */\n      pop\n      pop\n      pop\n      jump\t// out\n        /* \"Campaign.sol\":675:700  uint public minimumAmount */\n    tag_50:\n      sload(0x02)\n      dup2\n      jump\t// out\n        /* \"Campaign.sol\":1498:1768  function approveRequest(uint index) public{... */\n    tag_55:\n        /* \"Campaign.sol\":1550:1573  Request storage request */\n      0x00\n        /* \"Campaign.sol\":1576:1584  requests */\n      dup1\n        /* \"Campaign.sol\":1585:1590  index */\n      dup3\n        /* \"Campaign.sol\":1576:1591  requests[index] */\n      dup2\n      sload\n      dup2\n      lt\n      tag_83\n      jumpi\n      tag_84\n      tag_85\n      jump\t// in\n    tag_84:\n    tag_83:\n      swap1\n      0x00\n      mstore\n      keccak256(0x00, 0x20)\n      swap1\n      0x05\n      mul\n      add\n        /* \"Campaign.sol\":1550:1591  Request storage request = requests[index] */\n      swap1\n      pop\n        /* \"Campaign.sol\":1610:1619  investors */\n      0x03\n        /* \"Campaign.sol\":1610:1631  investors[msg.sender] */\n      0x00\n        /* \"Campaign.sol\":1620:1630  msg.sender */\n      caller\n        /* \"Campaign.sol\":1610:1631  investors[msg.sender] */\n      0xffffffffffffffffffffffffffffffffffffffff\n      and\n      0xffffffffffffffffffffffffffffffffffffffff\n      and\n      dup2\n      mstore\n      0x20\n      add\n      swap1\n      dup2\n      mstore\n      0x20\n      add\n      0x00\n      keccak256\n      0x00\n      swap1\n      sload\n      swap1\n      0x0100\n      exp\n      swap1\n      div\n      0xff\n      and\n        /* \"Campaign.sol\":1602:1632  require(investors[msg.sender]) */\n      tag_87\n      jumpi\n      0x00\n      dup1\n      revert\n    tag_87:\n        /* \"Campaign.sol\":1651:1658  request */\n      dup1\n        /* \"Campaign.sol\":1651:1668  request.approvals */\n      0x04\n      add\n        /* \"Campaign.sol\":1651:1680  request.approvals[msg.sender] */\n      0x00\n        /* \"Campaign.sol\":1669:1679  msg.sender */\n      caller\n        /* \"Campaign.sol\":1651:1680  request.approvals[msg.sender] */\n      0xffffffffffffffffffffffffffffffffffffffff\n      and\n      0xffffffffffffffffffffffffffffffffffffffff\n      and\n      dup2\n      mstore\n      0x20\n      add\n      swap1\n      dup2\n      mstore\n      0x20\n      add\n      0x00\n      keccak256\n      0x00\n      swap1\n      sload\n      swap1\n      0x0100\n      exp\n      swap1\n      div\n      0xff\n      and\n        /* \"Campaign.sol\":1650:1680  !request.approvals[msg.sender] */\n      iszero\n        /* \"Campaign.sol\":1642:1681  require(!request.approvals[msg.sender]) */\n      tag_88\n      jumpi\n      0x00\n      dup1\n      revert\n    tag_88:\n        /* \"Campaign.sol\":1724:1728  true */\n      0x01\n        /* \"Campaign.sol\":1692:1699  request */\n      dup2\n        /* \"Campaign.sol\":1692:1709  request.approvals */\n      0x04\n      add\n        /* \"Campaign.sol\":1692:1721  request.approvals[msg.sender] */\n      0x00\n        /* \"Campaign.sol\":1710:1720  msg.sender */\n      caller\n        /* \"Campaign.sol\":1692:1721  request.approvals[msg.sender] */\n      0xffffffffffffffffffffffffffffffffffffffff\n      and\n      0xffffffffffffffffffffffffffffffffffffffff\n      and\n      dup2\n      mstore\n      0x20\n      add\n      swap1\n      dup2\n      mstore\n      0x20\n      add\n      0x00\n      keccak256\n      0x00\n        /* \"Campaign.sol\":1692:1728  request.approvals[msg.sender] = true */\n      0x0100\n      exp\n      dup2\n      sload\n      dup2\n      0xff\n      mul\n      not\n      and\n      swap1\n      dup4\n      iszero\n      iszero\n      mul\n      or\n      swap1\n      sstore\n      pop\n        /* \"Campaign.sol\":1738:1745  request */\n      dup1\n        /* \"Campaign.sol\":1738:1759  request.approvalCount */\n      0x03\n      add\n      0x00\n        /* \"Campaign.sol\":1738:1761  request.approvalCount++ */\n      dup2\n      sload\n      dup1\n      swap3\n      swap2\n      swap1\n      tag_89\n      swap1\n      tag_90\n      jump\t// in\n    tag_89:\n      swap2\n      swap1\n      pop\n      sstore\n      pop\n        /* \"Campaign.sol\":1540:1768  {... */\n      pop\n        /* \"Campaign.sol\":1498:1768  function approveRequest(uint index) public{... */\n      pop\n      jump\t// out\n        /* \"Campaign.sol\":753:778  uint public investorCount */\n    tag_58:\n      sload(0x04)\n      dup2\n      jump\t// out\n        /* \"Campaign.sol\":1773:2062  function finaliseRequest(uint index) public{... */\n    tag_63:\n        /* \"Campaign.sol\":1826:1849  Request storage request */\n      0x00\n        /* \"Campaign.sol\":1852:1860  requests */\n      dup1\n        /* \"Campaign.sol\":1861:1866  index */\n      dup3\n        /* \"Campaign.sol\":1852:1867  requests[index] */\n      dup2\n      sload\n      dup2\n      lt\n      tag_92\n      jumpi\n      tag_93\n      tag_85\n      jump\t// in\n    tag_93:\n    tag_92:\n      swap1\n      0x00\n      mstore\n      keccak256(0x00, 0x20)\n      swap1\n      0x05\n      mul\n      add\n        /* \"Campaign.sol\":1826:1867  Request storage request = requests[index] */\n      swap1\n      pop\n        /* \"Campaign.sol\":1925:1926  2 */\n      0x02\n        /* \"Campaign.sol\":1911:1924  investorCount */\n      sload(0x04)\n        /* \"Campaign.sol\":1911:1926  investorCount/2 */\n      tag_95\n      swap2\n      swap1\n      tag_96\n      jump\t// in\n    tag_95:\n        /* \"Campaign.sol\":1886:1893  request */\n      dup2\n        /* \"Campaign.sol\":1886:1907  request.approvalCount */\n      0x03\n      add\n      sload\n        /* \"Campaign.sol\":1886:1927  request.approvalCount > (investorCount/2) */\n      gt\n        /* \"Campaign.sol\":1878:1928  require(request.approvalCount > (investorCount/2)) */\n      tag_97\n      jumpi\n      0x00\n      dup1\n      revert\n    tag_97:\n        /* \"Campaign.sol\":1947:1954  request */\n      dup1\n        /* \"Campaign.sol\":1947:1961  request.status */\n      0x02\n      add\n      0x14\n      swap1\n      sload\n      swap1\n      0x0100\n      exp\n      swap1\n      div\n      0xff\n      and\n        /* \"Campaign.sol\":1946:1961  !request.status */\n      iszero\n        /* \"Campaign.sol\":1938:1962  require(!request.status) */\n      tag_98\n      jumpi\n      0x00\n      dup1\n      revert\n    tag_98:\n        /* \"Campaign.sol\":1981:1988  request */\n      dup1\n        /* \"Campaign.sol\":1981:1998  request.recipient */\n      0x02\n      add\n      0x00\n      swap1\n      sload\n      swap1\n      0x0100\n      exp\n      swap1\n      div\n      0xffffffffffffffffffffffffffffffffffffffff\n      and\n        /* \"Campaign.sol\":1973:2008  payable(request.recipient).transfer */\n      0xffffffffffffffffffffffffffffffffffffffff\n      and\n        /* \"Campaign.sol\":1973:2023  payable(request.recipient).transfer(request.value) */\n      0x08fc\n        /* \"Campaign.sol\":2009:2016  request */\n      dup3\n        /* \"Campaign.sol\":2009:2022  request.value */\n      0x01\n      add\n      sload\n        /* \"Campaign.sol\":1973:2023  payable(request.recipient).transfer(request.value) */\n      swap1\n      dup2\n      iszero\n      mul\n      swap1\n      mload(0x40)\n      0x00\n      mload(0x40)\n      dup1\n      dup4\n      sub\n      dup2\n      dup6\n      dup9\n      dup9\n      call\n      swap4\n      pop\n      pop\n      pop\n      pop\n      iszero\n      dup1\n      iszero\n      tag_100\n      jumpi\n      returndatasize\n      0x00\n      dup1\n      returndatacopy\n      revert(0x00, returndatasize)\n    tag_100:\n      pop\n        /* \"Campaign.sol\":2050:2054  true */\n      0x01\n        /* \"Campaign.sol\":2033:2040  request */\n      dup2\n        /* \"Campaign.sol\":2033:2047  request.status */\n      0x02\n      add\n      0x14\n        /* \"Campaign.sol\":2033:2054  request.status = true */\n      0x0100\n      exp\n      dup2\n      sload\n      dup2\n      0xff\n      mul\n      not\n      and\n      swap1\n      dup4\n      iszero\n      iszero\n      mul\n      or\n      swap1\n      sstore\n      pop\n        /* \"Campaign.sol\":1816:2062  {... */\n      pop\n        /* \"Campaign.sol\":1773:2062  function finaliseRequest(uint index) public{... */\n      pop\n      jump\t// out\n        /* \"Campaign.sol\":984:1130  function invest() public payable{... */\n    tag_65:\n        /* \"Campaign.sol\":1046:1059  minimumAmount */\n      sload(0x02)\n        /* \"Campaign.sol\":1034:1043  msg.value */\n      callvalue\n        /* \"Campaign.sol\":1034:1059  msg.value > minimumAmount */\n      gt\n        /* \"Campaign.sol\":1026:1060  require(msg.value > minimumAmount) */\n      tag_102\n      jumpi\n      0x00\n      dup1\n      revert\n    tag_102:\n        /* \"Campaign.sol\":1094:1098  true */\n      0x01\n        /* \"Campaign.sol\":1070:1079  investors */\n      0x03\n        /* \"Campaign.sol\":1070:1091  investors[msg.sender] */\n      0x00\n        /* \"Campaign.sol\":1080:1090  msg.sender */\n      caller\n        /* \"Campaign.sol\":1070:1091  investors[msg.sender] */\n      0xffffffffffffffffffffffffffffffffffffffff\n      and\n      0xffffffffffffffffffffffffffffffffffffffff\n      and\n      dup2\n      mstore\n      0x20\n      add\n      swap1\n      dup2\n      mstore\n      0x20\n      add\n      0x00\n      keccak256\n      0x00\n        /* \"Campaign.sol\":1070:1098  investors[msg.sender] = true */\n      0x0100\n      exp\n      dup2\n      sload\n      dup2\n      0xff\n      mul\n      not\n      and\n      swap1\n      dup4\n      iszero\n      iszero\n      mul\n      or\n      swap1\n      sstore\n      pop\n        /* \"Campaign.sol\":1108:1121  investorCount */\n      0x04\n      0x00\n        /* \"Campaign.sol\":1108:1123  investorCount++ */\n      dup2\n      sload\n      dup1\n      swap3\n      swap2\n      swap1\n      tag_103\n      swap1\n      tag_90\n      jump\t// in\n    tag_103:\n      swap2\n      swap1\n      pop\n      sstore\n      pop\n        /* \"Campaign.sol\":984:1130  function invest() public payable{... */\n      jump\t// out\n    tag_81:\n      dup3\n      dup1\n      sload\n      tag_104\n      swap1\n      tag_71\n      jump\t// in\n    tag_104:\n      swap1\n      0x00\n      mstore\n      keccak256(0x00, 0x20)\n      swap1\n      0x1f\n      add\n      0x20\n      swap1\n      div\n      dup2\n      add\n      swap3\n      dup3\n      tag_106\n      jumpi\n      0x00\n      dup6\n      sstore\n      jump(tag_105)\n    tag_106:\n      dup3\n      0x1f\n      lt\n      tag_107\n      jumpi\n      dup1\n      mload\n      not(0xff)\n      and\n      dup4\n      dup1\n      add\n      or\n      dup6\n      sstore\n      jump(tag_105)\n    tag_107:\n      dup3\n      dup1\n      add\n      0x01\n      add\n      dup6\n      sstore\n      dup3\n      iszero\n      tag_105\n      jumpi\n      swap2\n      dup3\n      add\n    tag_108:\n      dup3\n      dup2\n      gt\n      iszero\n      tag_109\n      jumpi\n      dup3\n      mload\n      dup3\n      sstore\n      swap2\n      0x20\n      add\n      swap2\n      swap1\n      0x01\n      add\n      swap1\n      jump(tag_108)\n    tag_109:\n    tag_105:\n      pop\n      swap1\n      pop\n      tag_110\n      swap2\n      swap1\n      tag_111\n      jump\t// in\n    tag_110:\n      pop\n      swap1\n      jump\t// out\n    tag_111:\n    tag_112:\n      dup1\n      dup3\n      gt\n      iszero\n      tag_113\n      jumpi\n      0x00\n      dup2\n      0x00\n      swap1\n      sstore\n      pop\n      0x01\n      add\n      jump(tag_112)\n    tag_113:\n      pop\n      swap1\n      jump\t// out\n        /* \"#utility.yul\":7:84   */\n    tag_114:\n        /* \"#utility.yul\":44:51   */\n      0x00\n        /* \"#utility.yul\":73:78   */\n      dup2\n        /* \"#utility.yul\":62:78   */\n      swap1\n      pop\n        /* \"#utility.yul\":7:84   */\n      swap2\n      swap1\n      pop\n      jump\t// out\n        /* \"#utility.yul\":90:208   */\n    tag_115:\n        /* \"#utility.yul\":177:201   */\n      tag_148\n        /* \"#utility.yul\":195:200   */\n      dup2\n        /* \"#utility.yul\":177:201   */\n      tag_114\n      jump\t// in\n    tag_148:\n        /* \"#utility.yul\":172:175   */\n      dup3\n        /* \"#utility.yul\":165:202   */\n      mstore\n        /* \"#utility.yul\":90:208   */\n      pop\n      pop\n      jump\t// out\n        /* \"#utility.yul\":214:436   */\n    tag_18:\n        /* \"#utility.yul\":307:311   */\n      0x00\n        /* \"#utility.yul\":345:347   */\n      0x20\n        /* \"#utility.yul\":334:343   */\n      dup3\n        /* \"#utility.yul\":330:348   */\n      add\n        /* \"#utility.yul\":322:348   */\n      swap1\n      pop\n        /* \"#utility.yul\":358:429   */\n      tag_150\n        /* \"#utility.yul\":426:427   */\n      0x00\n        /* \"#utility.yul\":415:424   */\n      dup4\n        /* \"#utility.yul\":411:428   */\n      add\n        /* \"#utility.yul\":402:408   */\n      dup5\n        /* \"#utility.yul\":358:429   */\n      tag_115\n      jump\t// in\n    tag_150:\n        /* \"#utility.yul\":214:436   */\n      swap3\n      swap2\n      pop\n      pop\n      jump\t// out\n        /* \"#utility.yul\":442:568   */\n    tag_116:\n        /* \"#utility.yul\":479:486   */\n      0x00\n        /* \"#utility.yul\":519:561   */\n      0xffffffffffffffffffffffffffffffffffffffff\n        /* \"#utility.yul\":512:517   */\n      dup3\n        /* \"#utility.yul\":508:562   */\n      and\n        /* \"#utility.yul\":497:562   */\n      swap1\n      pop\n        /* \"#utility.yul\":442:568   */\n      swap2\n      swap1\n      pop\n      jump\t// out\n        /* \"#utility.yul\":574:670   */\n    tag_117:\n        /* \"#utility.yul\":611:618   */\n      0x00\n        /* \"#utility.yul\":640:664   */\n      tag_153\n        /* \"#utility.yul\":658:663   */\n      dup3\n        /* \"#utility.yul\":640:664   */\n      tag_116\n      jump\t// in\n    tag_153:\n        /* \"#utility.yul\":629:664   */\n      swap1\n      pop\n        /* \"#utility.yul\":574:670   */\n      swap2\n      swap1\n      pop\n      jump\t// out\n        /* \"#utility.yul\":676:794   */\n    tag_118:\n        /* \"#utility.yul\":763:787   */\n      tag_155\n        /* \"#utility.yul\":781:786   */\n      dup2\n        /* \"#utility.yul\":763:787   */\n      tag_117\n      jump\t// in\n    tag_155:\n        /* \"#utility.yul\":758:761   */\n      dup3\n        /* \"#utility.yul\":751:788   */\n      mstore\n        /* \"#utility.yul\":676:794   */\n      pop\n      pop\n      jump\t// out\n        /* \"#utility.yul\":800:1464   */\n    tag_23:\n        /* \"#utility.yul\":1005:1009   */\n      0x00\n        /* \"#utility.yul\":1043:1046   */\n      0xa0\n        /* \"#utility.yul\":1032:1041   */\n      dup3\n        /* \"#utility.yul\":1028:1047   */\n      add\n        /* \"#utility.yul\":1020:1047   */\n      swap1\n      pop\n        /* \"#utility.yul\":1057:1128   */\n      tag_157\n        /* \"#utility.yul\":1125:1126   */\n      0x00\n        /* \"#utility.yul\":1114:1123   */\n      dup4\n        /* \"#utility.yul\":1110:1127   */\n      add\n        /* \"#utility.yul\":1101:1107   */\n      dup9\n        /* \"#utility.yul\":1057:1128   */\n      tag_115\n      jump\t// in\n    tag_157:\n        /* \"#utility.yul\":1138:1210   */\n      tag_158\n        /* \"#utility.yul\":1206:1208   */\n      0x20\n        /* \"#utility.yul\":1195:1204   */\n      dup4\n        /* \"#utility.yul\":1191:1209   */\n      add\n        /* \"#utility.yul\":1182:1188   */\n      dup8\n        /* \"#utility.yul\":1138:1210   */\n      tag_115\n      jump\t// in\n    tag_158:\n        /* \"#utility.yul\":1220:1292   */\n      tag_159\n        /* \"#utility.yul\":1288:1290   */\n      0x40\n        /* \"#utility.yul\":1277:1286   */\n      dup4\n        /* \"#utility.yul\":1273:1291   */\n      add\n        /* \"#utility.yul\":1264:1270   */\n      dup7\n        /* \"#utility.yul\":1220:1292   */\n      tag_115\n      jump\t// in\n    tag_159:\n        /* \"#utility.yul\":1302:1374   */\n      tag_160\n        /* \"#utility.yul\":1370:1372   */\n      0x60\n        /* \"#utility.yul\":1359:1368   */\n      dup4\n        /* \"#utility.yul\":1355:1373   */\n      add\n        /* \"#utility.yul\":1346:1352   */\n      dup6\n        /* \"#utility.yul\":1302:1374   */\n      tag_115\n      jump\t// in\n    tag_160:\n        /* \"#utility.yul\":1384:1457   */\n      tag_161\n        /* \"#utility.yul\":1452:1455   */\n      0x80\n        /* \"#utility.yul\":1441:1450   */\n      dup4\n        /* \"#utility.yul\":1437:1456   */\n      add\n        /* \"#utility.yul\":1428:1434   */\n      dup5\n        /* \"#utility.yul\":1384:1457   */\n      tag_118\n      jump\t// in\n    tag_161:\n        /* \"#utility.yul\":800:1464   */\n      swap7\n      swap6\n      pop\n      pop\n      pop\n      pop\n      pop\n      pop\n      jump\t// out\n        /* \"#utility.yul\":1470:1692   */\n    tag_28:\n        /* \"#utility.yul\":1563:1567   */\n      0x00\n        /* \"#utility.yul\":1601:1603   */\n      0x20\n        /* \"#utility.yul\":1590:1599   */\n      dup3\n        /* \"#utility.yul\":1586:1604   */\n      add\n        /* \"#utility.yul\":1578:1604   */\n      swap1\n      pop\n        /* \"#utility.yul\":1614:1685   */\n      tag_163\n        /* \"#utility.yul\":1682:1683   */\n      0x00\n        /* \"#utility.yul\":1671:1680   */\n      dup4\n        /* \"#utility.yul\":1667:1684   */\n      add\n        /* \"#utility.yul\":1658:1664   */\n      dup5\n        /* \"#utility.yul\":1614:1685   */\n      tag_118\n      jump\t// in\n    tag_163:\n        /* \"#utility.yul\":1470:1692   */\n      swap3\n      swap2\n      pop\n      pop\n      jump\t// out\n        /* \"#utility.yul\":1698:1773   */\n    tag_119:\n        /* \"#utility.yul\":1731:1737   */\n      0x00\n        /* \"#utility.yul\":1764:1766   */\n      0x40\n        /* \"#utility.yul\":1758:1767   */\n      mload\n        /* \"#utility.yul\":1748:1767   */\n      swap1\n      pop\n        /* \"#utility.yul\":1698:1773   */\n      swap1\n      jump\t// out\n        /* \"#utility.yul\":1779:1896   */\n    tag_120:\n        /* \"#utility.yul\":1888:1889   */\n      0x00\n        /* \"#utility.yul\":1885:1886   */\n      dup1\n        /* \"#utility.yul\":1878:1890   */\n      revert\n        /* \"#utility.yul\":1902:2019   */\n    tag_121:\n        /* \"#utility.yul\":2011:2012   */\n      0x00\n        /* \"#utility.yul\":2008:2009   */\n      dup1\n        /* \"#utility.yul\":2001:2013   */\n      revert\n        /* \"#utility.yul\":2025:2147   */\n    tag_122:\n        /* \"#utility.yul\":2098:2122   */\n      tag_168\n        /* \"#utility.yul\":2116:2121   */\n      dup2\n        /* \"#utility.yul\":2098:2122   */\n      tag_117\n      jump\t// in\n    tag_168:\n        /* \"#utility.yul\":2091:2096   */\n      dup2\n        /* \"#utility.yul\":2088:2123   */\n      eq\n        /* \"#utility.yul\":2078:2141   */\n      tag_169\n      jumpi\n        /* \"#utility.yul\":2137:2138   */\n      0x00\n        /* \"#utility.yul\":2134:2135   */\n      dup1\n        /* \"#utility.yul\":2127:2139   */\n      revert\n        /* \"#utility.yul\":2078:2141   */\n    tag_169:\n        /* \"#utility.yul\":2025:2147   */\n      pop\n      jump\t// out\n        /* \"#utility.yul\":2153:2292   */\n    tag_123:\n        /* \"#utility.yul\":2199:2204   */\n      0x00\n        /* \"#utility.yul\":2237:2243   */\n      dup2\n        /* \"#utility.yul\":2224:2244   */\n      calldataload\n        /* \"#utility.yul\":2215:2244   */\n      swap1\n      pop\n        /* \"#utility.yul\":2253:2286   */\n      tag_171\n        /* \"#utility.yul\":2280:2285   */\n      dup2\n        /* \"#utility.yul\":2253:2286   */\n      tag_122\n      jump\t// in\n    tag_171:\n        /* \"#utility.yul\":2153:2292   */\n      swap3\n      swap2\n      pop\n      pop\n      jump\t// out\n        /* \"#utility.yul\":2298:2627   */\n    tag_32:\n        /* \"#utility.yul\":2357:2363   */\n      0x00\n        /* \"#utility.yul\":2406:2408   */\n      0x20\n        /* \"#utility.yul\":2394:2403   */\n      dup3\n        /* \"#utility.yul\":2385:2392   */\n      dup5\n        /* \"#utility.yul\":2381:2404   */\n      sub\n        /* \"#utility.yul\":2377:2409   */\n      slt\n        /* \"#utility.yul\":2374:2493   */\n      iszero\n      tag_173\n      jumpi\n        /* \"#utility.yul\":2412:2491   */\n      tag_174\n      tag_120\n      jump\t// in\n    tag_174:\n        /* \"#utility.yul\":2374:2493   */\n    tag_173:\n        /* \"#utility.yul\":2532:2533   */\n      0x00\n        /* \"#utility.yul\":2557:2610   */\n      tag_175\n        /* \"#utility.yul\":2602:2609   */\n      dup5\n        /* \"#utility.yul\":2593:2599   */\n      dup3\n        /* \"#utility.yul\":2582:2591   */\n      dup6\n        /* \"#utility.yul\":2578:2600   */\n      add\n        /* \"#utility.yul\":2557:2610   */\n      tag_123\n      jump\t// in\n    tag_175:\n        /* \"#utility.yul\":2547:2610   */\n      swap2\n      pop\n        /* \"#utility.yul\":2503:2620   */\n      pop\n        /* \"#utility.yul\":2298:2627   */\n      swap3\n      swap2\n      pop\n      pop\n      jump\t// out\n        /* \"#utility.yul\":2633:2723   */\n    tag_124:\n        /* \"#utility.yul\":2667:2674   */\n      0x00\n        /* \"#utility.yul\":2710:2715   */\n      dup2\n        /* \"#utility.yul\":2703:2716   */\n      iszero\n        /* \"#utility.yul\":2696:2717   */\n      iszero\n        /* \"#utility.yul\":2685:2717   */\n      swap1\n      pop\n        /* \"#utility.yul\":2633:2723   */\n      swap2\n      swap1\n      pop\n      jump\t// out\n        /* \"#utility.yul\":2729:2838   */\n    tag_125:\n        /* \"#utility.yul\":2810:2831   */\n      tag_178\n        /* \"#utility.yul\":2825:2830   */\n      dup2\n        /* \"#utility.yul\":2810:2831   */\n      tag_124\n      jump\t// in\n    tag_178:\n        /* \"#utility.yul\":2805:2808   */\n      dup3\n        /* \"#utility.yul\":2798:2832   */\n      mstore\n        /* \"#utility.yul\":2729:2838   */\n      pop\n      pop\n      jump\t// out\n        /* \"#utility.yul\":2844:3054   */\n    tag_35:\n        /* \"#utility.yul\":2931:2935   */\n      0x00\n        /* \"#utility.yul\":2969:2971   */\n      0x20\n        /* \"#utility.yul\":2958:2967   */\n      dup3\n        /* \"#utility.yul\":2954:2972   */\n      add\n        /* \"#utility.yul\":2946:2972   */\n      swap1\n      pop\n        /* \"#utility.yul\":2982:3047   */\n      tag_180\n        /* \"#utility.yul\":3044:3045   */\n      0x00\n        /* \"#utility.yul\":3033:3042   */\n      dup4\n        /* \"#utility.yul\":3029:3046   */\n      add\n        /* \"#utility.yul\":3020:3026   */\n      dup5\n        /* \"#utility.yul\":2982:3047   */\n      tag_125\n      jump\t// in\n    tag_180:\n        /* \"#utility.yul\":2844:3054   */\n      swap3\n      swap2\n      pop\n      pop\n      jump\t// out\n        /* \"#utility.yul\":3060:3182   */\n    tag_126:\n        /* \"#utility.yul\":3133:3157   */\n      tag_182\n        /* \"#utility.yul\":3151:3156   */\n      dup2\n        /* \"#utility.yul\":3133:3157   */\n      tag_114\n      jump\t// in\n    tag_182:\n        /* \"#utility.yul\":3126:3131   */\n      dup2\n        /* \"#utility.yul\":3123:3158   */\n      eq\n        /* \"#utility.yul\":3113:3176   */\n      tag_183\n      jumpi\n        /* \"#utility.yul\":3172:3173   */\n      0x00\n        /* \"#utility.yul\":3169:3170   */\n      dup1\n        /* \"#utility.yul\":3162:3174   */\n      revert\n        /* \"#utility.yul\":3113:3176   */\n    tag_183:\n        /* \"#utility.yul\":3060:3182   */\n      pop\n      jump\t// out\n        /* \"#utility.yul\":3188:3327   */\n    tag_127:\n        /* \"#utility.yul\":3234:3239   */\n      0x00\n        /* \"#utility.yul\":3272:3278   */\n      dup2\n        /* \"#utility.yul\":3259:3279   */\n      calldataload\n        /* \"#utility.yul\":3250:3279   */\n      swap1\n      pop\n        /* \"#utility.yul\":3288:3321   */\n      tag_185\n        /* \"#utility.yul\":3315:3320   */\n      dup2\n        /* \"#utility.yul\":3288:3321   */\n      tag_126\n      jump\t// in\n    tag_185:\n        /* \"#utility.yul\":3188:3327   */\n      swap3\n      swap2\n      pop\n      pop\n      jump\t// out\n        /* \"#utility.yul\":3333:3662   */\n    tag_39:\n        /* \"#utility.yul\":3392:3398   */\n      0x00\n        /* \"#utility.yul\":3441:3443   */\n      0x20\n        /* \"#utility.yul\":3429:3438   */\n      dup3\n        /* \"#utility.yul\":3420:3427   */\n      dup5\n        /* \"#utility.yul\":3416:3439   */\n      sub\n        /* \"#utility.yul\":3412:3444   */\n      slt\n        /* \"#utility.yul\":3409:3528   */\n      iszero\n      tag_187\n      jumpi\n        /* \"#utility.yul\":3447:3526   */\n      tag_188\n      tag_120\n      jump\t// in\n    tag_188:\n        /* \"#utility.yul\":3409:3528   */\n    tag_187:\n        /* \"#utility.yul\":3567:3568   */\n      0x00\n        /* \"#utility.yul\":3592:3645   */\n      tag_189\n        /* \"#utility.yul\":3637:3644   */\n      dup5\n        /* \"#utility.yul\":3628:3634   */\n      dup3\n        /* \"#utility.yul\":3617:3626   */\n      dup6\n        /* \"#utility.yul\":3613:3635   */\n      add\n        /* \"#utility.yul\":3592:3645   */\n      tag_127\n      jump\t// in\n    tag_189:\n        /* \"#utility.yul\":3582:3645   */\n      swap2\n      pop\n        /* \"#utility.yul\":3538:3655   */\n      pop\n        /* \"#utility.yul\":3333:3662   */\n      swap3\n      swap2\n      pop\n      pop\n      jump\t// out\n        /* \"#utility.yul\":3668:3767   */\n    tag_128:\n        /* \"#utility.yul\":3720:3726   */\n      0x00\n        /* \"#utility.yul\":3754:3759   */\n      dup2\n        /* \"#utility.yul\":3748:3760   */\n      mload\n        /* \"#utility.yul\":3738:3760   */\n      swap1\n      pop\n        /* \"#utility.yul\":3668:3767   */\n      swap2\n      swap1\n      pop\n      jump\t// out\n        /* \"#utility.yul\":3773:3942   */\n    tag_129:\n        /* \"#utility.yul\":3857:3868   */\n      0x00\n        /* \"#utility.yul\":3891:3897   */\n      dup3\n        /* \"#utility.yul\":3886:3889   */\n      dup3\n        /* \"#utility.yul\":3879:3898   */\n      mstore\n        /* \"#utility.yul\":3931:3935   */\n      0x20\n        /* \"#utility.yul\":3926:3929   */\n      dup3\n        /* \"#utility.yul\":3922:3936   */\n      add\n        /* \"#utility.yul\":3907:3936   */\n      swap1\n      pop\n        /* \"#utility.yul\":3773:3942   */\n      swap3\n      swap2\n      pop\n      pop\n      jump\t// out\n        /* \"#utility.yul\":3948:4255   */\n    tag_130:\n        /* \"#utility.yul\":4016:4017   */\n      0x00\n        /* \"#utility.yul\":4026:4139   */\n    tag_193:\n        /* \"#utility.yul\":4040:4046   */\n      dup4\n        /* \"#utility.yul\":4037:4038   */\n      dup2\n        /* \"#utility.yul\":4034:4047   */\n      lt\n        /* \"#utility.yul\":4026:4139   */\n      iszero\n      tag_195\n      jumpi\n        /* \"#utility.yul\":4125:4126   */\n      dup1\n        /* \"#utility.yul\":4120:4123   */\n      dup3\n        /* \"#utility.yul\":4116:4127   */\n      add\n        /* \"#utility.yul\":4110:4128   */\n      mload\n        /* \"#utility.yul\":4106:4107   */\n      dup2\n        /* \"#utility.yul\":4101:4104   */\n      dup5\n        /* \"#utility.yul\":4097:4108   */\n      add\n        /* \"#utility.yul\":4090:4129   */\n      mstore\n        /* \"#utility.yul\":4062:4064   */\n      0x20\n        /* \"#utility.yul\":4059:4060   */\n      dup2\n        /* \"#utility.yul\":4055:4065   */\n      add\n        /* \"#utility.yul\":4050:4065   */\n      swap1\n      pop\n        /* \"#utility.yul\":4026:4139   */\n      jump(tag_193)\n    tag_195:\n        /* \"#utility.yul\":4157:4163   */\n      dup4\n        /* \"#utility.yul\":4154:4155   */\n      dup2\n        /* \"#utility.yul\":4151:4164   */\n      gt\n        /* \"#utility.yul\":4148:4249   */\n      iszero\n      tag_196\n      jumpi\n        /* \"#utility.yul\":4237:4238   */\n      0x00\n        /* \"#utility.yul\":4228:4234   */\n      dup5\n        /* \"#utility.yul\":4223:4226   */\n      dup5\n        /* \"#utility.yul\":4219:4235   */\n      add\n        /* \"#utility.yul\":4212:4239   */\n      mstore\n        /* \"#utility.yul\":4148:4249   */\n    tag_196:\n        /* \"#utility.yul\":3997:4255   */\n      pop\n        /* \"#utility.yul\":3948:4255   */\n      pop\n      pop\n      pop\n      jump\t// out\n        /* \"#utility.yul\":4261:4363   */\n    tag_131:\n        /* \"#utility.yul\":4302:4308   */\n      0x00\n        /* \"#utility.yul\":4353:4355   */\n      0x1f\n        /* \"#utility.yul\":4349:4356   */\n      not\n        /* \"#utility.yul\":4344:4346   */\n      0x1f\n        /* \"#utility.yul\":4337:4342   */\n      dup4\n        /* \"#utility.yul\":4333:4347   */\n      add\n        /* \"#utility.yul\":4329:4357   */\n      and\n        /* \"#utility.yul\":4319:4357   */\n      swap1\n      pop\n        /* \"#utility.yul\":4261:4363   */\n      swap2\n      swap1\n      pop\n      jump\t// out\n        /* \"#utility.yul\":4369:4733   */\n    tag_132:\n        /* \"#utility.yul\":4457:4460   */\n      0x00\n        /* \"#utility.yul\":4485:4524   */\n      tag_199\n        /* \"#utility.yul\":4518:4523   */\n      dup3\n        /* \"#utility.yul\":4485:4524   */\n      tag_128\n      jump\t// in\n    tag_199:\n        /* \"#utility.yul\":4540:4611   */\n      tag_200\n        /* \"#utility.yul\":4604:4610   */\n      dup2\n        /* \"#utility.yul\":4599:4602   */\n      dup6\n        /* \"#utility.yul\":4540:4611   */\n      tag_129\n      jump\t// in\n    tag_200:\n        /* \"#utility.yul\":4533:4611   */\n      swap4\n      pop\n        /* \"#utility.yul\":4620:4672   */\n      tag_201\n        /* \"#utility.yul\":4665:4671   */\n      dup2\n        /* \"#utility.yul\":4660:4663   */\n      dup6\n        /* \"#utility.yul\":4653:4657   */\n      0x20\n        /* \"#utility.yul\":4646:4651   */\n      dup7\n        /* \"#utility.yul\":4642:4658   */\n      add\n        /* \"#utility.yul\":4620:4672   */\n      tag_130\n      jump\t// in\n    tag_201:\n        /* \"#utility.yul\":4697:4726   */\n      tag_202\n        /* \"#utility.yul\":4719:4725   */\n      dup2\n        /* \"#utility.yul\":4697:4726   */\n      tag_131\n      jump\t// in\n    tag_202:\n        /* \"#utility.yul\":4692:4695   */\n      dup5\n        /* \"#utility.yul\":4688:4727   */\n      add\n        /* \"#utility.yul\":4681:4727   */\n      swap2\n      pop\n        /* \"#utility.yul\":4461:4733   */\n      pop\n        /* \"#utility.yul\":4369:4733   */\n      swap3\n      swap2\n      pop\n      pop\n      jump\t// out\n        /* \"#utility.yul\":4739:5482   */\n    tag_42:\n        /* \"#utility.yul\":4958:4962   */\n      0x00\n        /* \"#utility.yul\":4996:4999   */\n      0xa0\n        /* \"#utility.yul\":4985:4994   */\n      dup3\n        /* \"#utility.yul\":4981:5000   */\n      add\n        /* \"#utility.yul\":4973:5000   */\n      swap1\n      pop\n        /* \"#utility.yul\":5046:5055   */\n      dup2\n        /* \"#utility.yul\":5040:5044   */\n      dup2\n        /* \"#utility.yul\":5036:5056   */\n      sub\n        /* \"#utility.yul\":5032:5033   */\n      0x00\n        /* \"#utility.yul\":5021:5030   */\n      dup4\n        /* \"#utility.yul\":5017:5034   */\n      add\n        /* \"#utility.yul\":5010:5057   */\n      mstore\n        /* \"#utility.yul\":5074:5152   */\n      tag_204\n        /* \"#utility.yul\":5147:5151   */\n      dup2\n        /* \"#utility.yul\":5138:5144   */\n      dup9\n        /* \"#utility.yul\":5074:5152   */\n      tag_132\n      jump\t// in\n    tag_204:\n        /* \"#utility.yul\":5066:5152   */\n      swap1\n      pop\n        /* \"#utility.yul\":5162:5234   */\n      tag_205\n        /* \"#utility.yul\":5230:5232   */\n      0x20\n        /* \"#utility.yul\":5219:5228   */\n      dup4\n        /* \"#utility.yul\":5215:5233   */\n      add\n        /* \"#utility.yul\":5206:5212   */\n      dup8\n        /* \"#utility.yul\":5162:5234   */\n      tag_115\n      jump\t// in\n    tag_205:\n        /* \"#utility.yul\":5244:5316   */\n      tag_206\n        /* \"#utility.yul\":5312:5314   */\n      0x40\n        /* \"#utility.yul\":5301:5310   */\n      dup4\n        /* \"#utility.yul\":5297:5315   */\n      add\n        /* \"#utility.yul\":5288:5294   */\n      dup7\n        /* \"#utility.yul\":5244:5316   */\n      tag_118\n      jump\t// in\n    tag_206:\n        /* \"#utility.yul\":5326:5392   */\n      tag_207\n        /* \"#utility.yul\":5388:5390   */\n      0x60\n        /* \"#utility.yul\":5377:5386   */\n      dup4\n        /* \"#utility.yul\":5373:5391   */\n      add\n        /* \"#utility.yul\":5364:5370   */\n      dup6\n        /* \"#utility.yul\":5326:5392   */\n      tag_125\n      jump\t// in\n    tag_207:\n        /* \"#utility.yul\":5402:5475   */\n      tag_208\n        /* \"#utility.yul\":5470:5473   */\n      0x80\n        /* \"#utility.yul\":5459:5468   */\n      dup4\n        /* \"#utility.yul\":5455:5474   */\n      add\n        /* \"#utility.yul\":5446:5452   */\n      dup5\n        /* \"#utility.yul\":5402:5475   */\n      tag_115\n      jump\t// in\n    tag_208:\n        /* \"#utility.yul\":4739:5482   */\n      swap7\n      swap6\n      pop\n      pop\n      pop\n      pop\n      pop\n      pop\n      jump\t// out\n        /* \"#utility.yul\":5488:5605   */\n    tag_133:\n        /* \"#utility.yul\":5597:5598   */\n      0x00\n        /* \"#utility.yul\":5594:5595   */\n      dup1\n        /* \"#utility.yul\":5587:5599   */\n      revert\n        /* \"#utility.yul\":5611:5728   */\n    tag_134:\n        /* \"#utility.yul\":5720:5721   */\n      0x00\n        /* \"#utility.yul\":5717:5718   */\n      dup1\n        /* \"#utility.yul\":5710:5722   */\n      revert\n        /* \"#utility.yul\":5734:5914   */\n    tag_135:\n        /* \"#utility.yul\":5782:5859   */\n      0x4e487b7100000000000000000000000000000000000000000000000000000000\n        /* \"#utility.yul\":5779:5780   */\n      0x00\n        /* \"#utility.yul\":5772:5860   */\n      mstore\n        /* \"#utility.yul\":5879:5883   */\n      0x41\n        /* \"#utility.yul\":5876:5877   */\n      0x04\n        /* \"#utility.yul\":5869:5884   */\n      mstore\n        /* \"#utility.yul\":5903:5907   */\n      0x24\n        /* \"#utility.yul\":5900:5901   */\n      0x00\n        /* \"#utility.yul\":5893:5908   */\n      revert\n        /* \"#utility.yul\":5920:6201   */\n    tag_136:\n        /* \"#utility.yul\":6003:6030   */\n      tag_213\n        /* \"#utility.yul\":6025:6029   */\n      dup3\n        /* \"#utility.yul\":6003:6030   */\n      tag_131\n      jump\t// in\n    tag_213:\n        /* \"#utility.yul\":5995:6001   */\n      dup2\n        /* \"#utility.yul\":5991:6031   */\n      add\n        /* \"#utility.yul\":6133:6139   */\n      dup2\n        /* \"#utility.yul\":6121:6131   */\n      dup2\n        /* \"#utility.yul\":6118:6140   */\n      lt\n        /* \"#utility.yul\":6097:6115   */\n      0xffffffffffffffff\n        /* \"#utility.yul\":6085:6095   */\n      dup3\n        /* \"#utility.yul\":6082:6116   */\n      gt\n        /* \"#utility.yul\":6079:6141   */\n      or\n        /* \"#utility.yul\":6076:6164   */\n      iszero\n      tag_214\n      jumpi\n        /* \"#utility.yul\":6144:6162   */\n      tag_215\n      tag_135\n      jump\t// in\n    tag_215:\n        /* \"#utility.yul\":6076:6164   */\n    tag_214:\n        /* \"#utility.yul\":6184:6194   */\n      dup1\n        /* \"#utility.yul\":6180:6182   */\n      0x40\n        /* \"#utility.yul\":6173:6195   */\n      mstore\n        /* \"#utility.yul\":5963:6201   */\n      pop\n        /* \"#utility.yul\":5920:6201   */\n      pop\n      pop\n      jump\t// out\n        /* \"#utility.yul\":6207:6336   */\n    tag_137:\n        /* \"#utility.yul\":6241:6247   */\n      0x00\n        /* \"#utility.yul\":6268:6288   */\n      tag_217\n      tag_119\n      jump\t// in\n    tag_217:\n        /* \"#utility.yul\":6258:6288   */\n      swap1\n      pop\n        /* \"#utility.yul\":6297:6330   */\n      tag_218\n        /* \"#utility.yul\":6325:6329   */\n      dup3\n        /* \"#utility.yul\":6317:6323   */\n      dup3\n        /* \"#utility.yul\":6297:6330   */\n      tag_136\n      jump\t// in\n    tag_218:\n        /* \"#utility.yul\":6207:6336   */\n      swap2\n      swap1\n      pop\n      jump\t// out\n        /* \"#utility.yul\":6342:6650   */\n    tag_138:\n        /* \"#utility.yul\":6404:6408   */\n      0x00\n        /* \"#utility.yul\":6494:6512   */\n      0xffffffffffffffff\n        /* \"#utility.yul\":6486:6492   */\n      dup3\n        /* \"#utility.yul\":6483:6513   */\n      gt\n        /* \"#utility.yul\":6480:6536   */\n      iszero\n      tag_220\n      jumpi\n        /* \"#utility.yul\":6516:6534   */\n      tag_221\n      tag_135\n      jump\t// in\n    tag_221:\n        /* \"#utility.yul\":6480:6536   */\n    tag_220:\n        /* \"#utility.yul\":6554:6583   */\n      tag_222\n        /* \"#utility.yul\":6576:6582   */\n      dup3\n        /* \"#utility.yul\":6554:6583   */\n      tag_131\n      jump\t// in\n    tag_222:\n        /* \"#utility.yul\":6546:6583   */\n      swap1\n      pop\n        /* \"#utility.yul\":6638:6642   */\n      0x20\n        /* \"#utility.yul\":6632:6636   */\n      dup2\n        /* \"#utility.yul\":6628:6643   */\n      add\n        /* \"#utility.yul\":6620:6643   */\n      swap1\n      pop\n        /* \"#utility.yul\":6342:6650   */\n      swap2\n      swap1\n      pop\n      jump\t// out\n        /* \"#utility.yul\":6656:6810   */\n    tag_139:\n        /* \"#utility.yul\":6740:6746   */\n      dup3\n        /* \"#utility.yul\":6735:6738   */\n      dup2\n        /* \"#utility.yul\":6730:6733   */\n      dup4\n        /* \"#utility.yul\":6717:6747   */\n      calldatacopy\n        /* \"#utility.yul\":6802:6803   */\n      0x00\n        /* \"#utility.yul\":6793:6799   */\n      dup4\n        /* \"#utility.yul\":6788:6791   */\n      dup4\n        /* \"#utility.yul\":6784:6800   */\n      add\n        /* \"#utility.yul\":6777:6804   */\n      mstore\n        /* \"#utility.yul\":6656:6810   */\n      pop\n      pop\n      pop\n      jump\t// out\n        /* \"#utility.yul\":6816:7228   */\n    tag_140:\n        /* \"#utility.yul\":6894:6899   */\n      0x00\n        /* \"#utility.yul\":6919:6985   */\n      tag_225\n        /* \"#utility.yul\":6935:6984   */\n      tag_226\n        /* \"#utility.yul\":6977:6983   */\n      dup5\n        /* \"#utility.yul\":6935:6984   */\n      tag_138\n      jump\t// in\n    tag_226:\n        /* \"#utility.yul\":6919:6985   */\n      tag_137\n      jump\t// in\n    tag_225:\n        /* \"#utility.yul\":6910:6985   */\n      swap1\n      pop\n        /* \"#utility.yul\":7008:7014   */\n      dup3\n        /* \"#utility.yul\":7001:7006   */\n      dup2\n        /* \"#utility.yul\":6994:7015   */\n      mstore\n        /* \"#utility.yul\":7046:7050   */\n      0x20\n        /* \"#utility.yul\":7039:7044   */\n      dup2\n        /* \"#utility.yul\":7035:7051   */\n      add\n        /* \"#utility.yul\":7084:7087   */\n      dup5\n        /* \"#utility.yul\":7075:7081   */\n      dup5\n        /* \"#utility.yul\":7070:7073   */\n      dup5\n        /* \"#utility.yul\":7066:7082   */\n      add\n        /* \"#utility.yul\":7063:7088   */\n      gt\n        /* \"#utility.yul\":7060:7172   */\n      iszero\n      tag_227\n      jumpi\n        /* \"#utility.yul\":7091:7170   */\n      tag_228\n      tag_134\n      jump\t// in\n    tag_228:\n        /* \"#utility.yul\":7060:7172   */\n    tag_227:\n        /* \"#utility.yul\":7181:7222   */\n      tag_229\n        /* \"#utility.yul\":7215:7221   */\n      dup5\n        /* \"#utility.yul\":7210:7213   */\n      dup3\n        /* \"#utility.yul\":7205:7208   */\n      dup6\n        /* \"#utility.yul\":7181:7222   */\n      tag_139\n      jump\t// in\n    tag_229:\n        /* \"#utility.yul\":6900:7228   */\n      pop\n        /* \"#utility.yul\":6816:7228   */\n      swap4\n      swap3\n      pop\n      pop\n      pop\n      jump\t// out\n        /* \"#utility.yul\":7248:7588   */\n    tag_141:\n        /* \"#utility.yul\":7304:7309   */\n      0x00\n        /* \"#utility.yul\":7353:7356   */\n      dup3\n        /* \"#utility.yul\":7346:7350   */\n      0x1f\n        /* \"#utility.yul\":7338:7344   */\n      dup4\n        /* \"#utility.yul\":7334:7351   */\n      add\n        /* \"#utility.yul\":7330:7357   */\n      slt\n        /* \"#utility.yul\":7320:7442   */\n      tag_231\n      jumpi\n        /* \"#utility.yul\":7361:7440   */\n      tag_232\n      tag_133\n      jump\t// in\n    tag_232:\n        /* \"#utility.yul\":7320:7442   */\n    tag_231:\n        /* \"#utility.yul\":7478:7484   */\n      dup2\n        /* \"#utility.yul\":7465:7485   */\n      calldataload\n        /* \"#utility.yul\":7503:7582   */\n      tag_233\n        /* \"#utility.yul\":7578:7581   */\n      dup5\n        /* \"#utility.yul\":7570:7576   */\n      dup3\n        /* \"#utility.yul\":7563:7567   */\n      0x20\n        /* \"#utility.yul\":7555:7561   */\n      dup7\n        /* \"#utility.yul\":7551:7568   */\n      add\n        /* \"#utility.yul\":7503:7582   */\n      tag_140\n      jump\t// in\n    tag_233:\n        /* \"#utility.yul\":7494:7582   */\n      swap2\n      pop\n        /* \"#utility.yul\":7310:7588   */\n      pop\n        /* \"#utility.yul\":7248:7588   */\n      swap3\n      swap2\n      pop\n      pop\n      jump\t// out\n        /* \"#utility.yul\":7594:8393   */\n    tag_46:\n        /* \"#utility.yul\":7681:7687   */\n      0x00\n        /* \"#utility.yul\":7689:7695   */\n      dup1\n        /* \"#utility.yul\":7697:7703   */\n      0x00\n        /* \"#utility.yul\":7746:7748   */\n      0x60\n        /* \"#utility.yul\":7734:7743   */\n      dup5\n        /* \"#utility.yul\":7725:7732   */\n      dup7\n        /* \"#utility.yul\":7721:7744   */\n      sub\n        /* \"#utility.yul\":7717:7749   */\n      slt\n        /* \"#utility.yul\":7714:7833   */\n      iszero\n      tag_235\n      jumpi\n        /* \"#utility.yul\":7752:7831   */\n      tag_236\n      tag_120\n      jump\t// in\n    tag_236:\n        /* \"#utility.yul\":7714:7833   */\n    tag_235:\n        /* \"#utility.yul\":7900:7901   */\n      0x00\n        /* \"#utility.yul\":7889:7898   */\n      dup5\n        /* \"#utility.yul\":7885:7902   */\n      add\n        /* \"#utility.yul\":7872:7903   */\n      calldataload\n        /* \"#utility.yul\":7930:7948   */\n      0xffffffffffffffff\n        /* \"#utility.yul\":7922:7928   */\n      dup2\n        /* \"#utility.yul\":7919:7949   */\n      gt\n        /* \"#utility.yul\":7916:8033   */\n      iszero\n      tag_237\n      jumpi\n        /* \"#utility.yul\":7952:8031   */\n      tag_238\n      tag_121\n      jump\t// in\n    tag_238:\n        /* \"#utility.yul\":7916:8033   */\n    tag_237:\n        /* \"#utility.yul\":8057:8120   */\n      tag_239\n        /* \"#utility.yul\":8112:8119   */\n      dup7\n        /* \"#utility.yul\":8103:8109   */\n      dup3\n        /* \"#utility.yul\":8092:8101   */\n      dup8\n        /* \"#utility.yul\":8088:8110   */\n      add\n        /* \"#utility.yul\":8057:8120   */\n      tag_141\n      jump\t// in\n    tag_239:\n        /* \"#utility.yul\":8047:8120   */\n      swap4\n      pop\n        /* \"#utility.yul\":7843:8130   */\n      pop\n        /* \"#utility.yul\":8169:8171   */\n      0x20\n        /* \"#utility.yul\":8195:8248   */\n      tag_240\n        /* \"#utility.yul\":8240:8247   */\n      dup7\n        /* \"#utility.yul\":8231:8237   */\n      dup3\n        /* \"#utility.yul\":8220:8229   */\n      dup8\n        /* \"#utility.yul\":8216:8238   */\n      add\n        /* \"#utility.yul\":8195:8248   */\n      tag_127\n      jump\t// in\n    tag_240:\n        /* \"#utility.yul\":8185:8248   */\n      swap3\n      pop\n        /* \"#utility.yul\":8140:8258   */\n      pop\n        /* \"#utility.yul\":8297:8299   */\n      0x40\n        /* \"#utility.yul\":8323:8376   */\n      tag_241\n        /* \"#utility.yul\":8368:8375   */\n      dup7\n        /* \"#utility.yul\":8359:8365   */\n      dup3\n        /* \"#utility.yul\":8348:8357   */\n      dup8\n        /* \"#utility.yul\":8344:8366   */\n      add\n        /* \"#utility.yul\":8323:8376   */\n      tag_123\n      jump\t// in\n    tag_241:\n        /* \"#utility.yul\":8313:8376   */\n      swap2\n      pop\n        /* \"#utility.yul\":8268:8386   */\n      pop\n        /* \"#utility.yul\":7594:8393   */\n      swap3\n      pop\n      swap3\n      pop\n      swap3\n      jump\t// out\n        /* \"#utility.yul\":8399:8579   */\n    tag_142:\n        /* \"#utility.yul\":8447:8524   */\n      0x4e487b7100000000000000000000000000000000000000000000000000000000\n        /* \"#utility.yul\":8444:8445   */\n      0x00\n        /* \"#utility.yul\":8437:8525   */\n      mstore\n        /* \"#utility.yul\":8544:8548   */\n      0x22\n        /* \"#utility.yul\":8541:8542   */\n      0x04\n        /* \"#utility.yul\":8534:8549   */\n      mstore\n        /* \"#utility.yul\":8568:8572   */\n      0x24\n        /* \"#utility.yul\":8565:8566   */\n      0x00\n        /* \"#utility.yul\":8558:8573   */\n      revert\n        /* \"#utility.yul\":8585:8905   */\n    tag_71:\n        /* \"#utility.yul\":8629:8635   */\n      0x00\n        /* \"#utility.yul\":8666:8667   */\n      0x02\n        /* \"#utility.yul\":8660:8664   */\n      dup3\n        /* \"#utility.yul\":8656:8668   */\n      div\n        /* \"#utility.yul\":8646:8668   */\n      swap1\n      pop\n        /* \"#utility.yul\":8713:8714   */\n      0x01\n        /* \"#utility.yul\":8707:8711   */\n      dup3\n        /* \"#utility.yul\":8703:8715   */\n      and\n        /* \"#utility.yul\":8734:8752   */\n      dup1\n        /* \"#utility.yul\":8724:8805   */\n      tag_244\n      jumpi\n        /* \"#utility.yul\":8790:8794   */\n      0x7f\n        /* \"#utility.yul\":8782:8788   */\n      dup3\n        /* \"#utility.yul\":8778:8795   */\n      and\n        /* \"#utility.yul\":8768:8795   */\n      swap2\n      pop\n        /* \"#utility.yul\":8724:8805   */\n    tag_244:\n        /* \"#utility.yul\":8852:8854   */\n      0x20\n        /* \"#utility.yul\":8844:8850   */\n      dup3\n        /* \"#utility.yul\":8841:8855   */\n      lt\n        /* \"#utility.yul\":8821:8839   */\n      dup2\n        /* \"#utility.yul\":8818:8856   */\n      eq\n        /* \"#utility.yul\":8815:8899   */\n      iszero\n      tag_245\n      jumpi\n        /* \"#utility.yul\":8871:8889   */\n      tag_246\n      tag_142\n      jump\t// in\n    tag_246:\n        /* \"#utility.yul\":8815:8899   */\n    tag_245:\n        /* \"#utility.yul\":8636:8905   */\n      pop\n        /* \"#utility.yul\":8585:8905   */\n      swap2\n      swap1\n      pop\n      jump\t// out\n        /* \"#utility.yul\":8911:9091   */\n    tag_85:\n        /* \"#utility.yul\":8959:9036   */\n      0x4e487b7100000000000000000000000000000000000000000000000000000000\n        /* \"#utility.yul\":8956:8957   */\n      0x00\n        /* \"#utility.yul\":8949:9037   */\n      mstore\n        /* \"#utility.yul\":9056:9060   */\n      0x32\n        /* \"#utility.yul\":9053:9054   */\n      0x04\n        /* \"#utility.yul\":9046:9061   */\n      mstore\n        /* \"#utility.yul\":9080:9084   */\n      0x24\n        /* \"#utility.yul\":9077:9078   */\n      0x00\n        /* \"#utility.yul\":9070:9085   */\n      revert\n        /* \"#utility.yul\":9097:9277   */\n    tag_143:\n        /* \"#utility.yul\":9145:9222   */\n      0x4e487b7100000000000000000000000000000000000000000000000000000000\n        /* \"#utility.yul\":9142:9143   */\n      0x00\n        /* \"#utility.yul\":9135:9223   */\n      mstore\n        /* \"#utility.yul\":9242:9246   */\n      0x11\n        /* \"#utility.yul\":9239:9240   */\n      0x04\n        /* \"#utility.yul\":9232:9247   */\n      mstore\n        /* \"#utility.yul\":9266:9270   */\n      0x24\n        /* \"#utility.yul\":9263:9264   */\n      0x00\n        /* \"#utility.yul\":9256:9271   */\n      revert\n        /* \"#utility.yul\":9283:9516   */\n    tag_90:\n        /* \"#utility.yul\":9322:9325   */\n      0x00\n        /* \"#utility.yul\":9345:9369   */\n      tag_250\n        /* \"#utility.yul\":9363:9368   */\n      dup3\n        /* \"#utility.yul\":9345:9369   */\n      tag_114\n      jump\t// in\n    tag_250:\n        /* \"#utility.yul\":9336:9369   */\n      swap2\n      pop\n        /* \"#utility.yul\":9391:9457   */\n      0xffffffffffffffffffffffffffffffffffffffffffffffffffffffffffffffff\n        /* \"#utility.yul\":9384:9389   */\n      dup3\n        /* \"#utility.yul\":9381:9458   */\n      eq\n        /* \"#utility.yul\":9378:9481   */\n      iszero\n      tag_251\n      jumpi\n        /* \"#utility.yul\":9461:9479   */\n      tag_252\n      tag_143\n      jump\t// in\n    tag_252:\n        /* \"#utility.yul\":9378:9481   */\n    tag_251:\n        /* \"#utility.yul\":9508:9509   */\n      0x01\n        /* \"#utility.yul\":9501:9506   */\n      dup3\n        /* \"#utility.yul\":9497:9510   */\n      add\n        /* \"#utility.yul\":9490:9510   */\n      swap1\n      pop\n        /* \"#utility.yul\":9283:9516   */\n      swap2\n      swap1\n      pop\n      jump\t// out\n        /* \"#utility.yul\":9522:9702   */\n    tag_144:\n        /* \"#utility.yul\":9570:9647   */\n      0x4e487b7100000000000000000000000000000000000000000000000000000000\n        /* \"#utility.yul\":9567:9568   */\n      0x00\n        /* \"#utility.yul\":9560:9648   */\n      mstore\n        /* \"#utility.yul\":9667:9671   */\n      0x12\n        /* \"#utility.yul\":9664:9665   */\n      0x04\n        /* \"#utility.yul\":9657:9672   */\n      mstore\n        /* \"#utility.yul\":9691:9695   */\n      0x24\n        /* \"#utility.yul\":9688:9689   */\n      0x00\n        /* \"#utility.yul\":9681:9696   */\n      revert\n        /* \"#utility.yul\":9708:9893   */\n    tag_96:\n        /* \"#utility.yul\":9748:9749   */\n      0x00\n        /* \"#utility.yul\":9765:9785   */\n      tag_255\n        /* \"#utility.yul\":9783:9784   */\n      dup3\n        /* \"#utility.yul\":9765:9785   */\n      tag_114\n      jump\t// in\n    tag_255:\n        /* \"#utility.yul\":9760:9785   */\n      swap2\n      pop\n        /* \"#utility.yul\":9799:9819   */\n      tag_256\n        /* \"#utility.yul\":9817:9818   */\n      dup4\n        /* \"#utility.yul\":9799:9819   */\n      tag_114\n      jump\t// in\n    tag_256:\n        /* \"#utility.yul\":9794:9819   */\n      swap3\n      pop\n        /* \"#utility.yul\":9838:9839   */\n      dup3\n        /* \"#utility.yul\":9828:9863   */\n      tag_257\n      jumpi\n        /* \"#utility.yul\":9843:9861   */\n      tag_258\n      tag_144\n      jump\t// in\n    tag_258:\n        /* \"#utility.yul\":9828:9863   */\n    tag_257:\n        /* \"#utility.yul\":9885:9886   */\n      dup3\n        /* \"#utility.yul\":9882:9883   */\n      dup3\n        /* \"#utility.yul\":9878:9887   */\n      div\n        /* \"#utility.yul\":9873:9887   */\n      swap1\n      pop\n        /* \"#utility.yul\":9708:9893   */\n      swap3\n      swap2\n      pop\n      pop\n      jump\t// out\n\n    auxdata: 0xa2646970667358221220138dc4e3c7a1aa28e3b6e9f8aedb12486e64c4a8c2219f1301bf290e3af6f1bc64736f6c63430008090033\n}\n","bytecode":{"linkReferences":{},"object":"60806040523480156200001157600080fd5b50604051620010253803806200102583398181016040528101906200003791906200012c565b80600160006101000a81548173ffffffffffffffffffffffffffffffffffffffff021916908373ffffffffffffffffffffffffffffffffffffffff16021790555081600281905550505062000173565b600080fd5b6000819050919050565b620000a1816200008c565b8114620000ad57600080fd5b50565b600081519050620000c18162000096565b92915050565b600073ffffffffffffffffffffffffffffffffffffffff82169050919050565b6000620000f482620000c7565b9050919050565b6200010681620000e7565b81146200011257600080fd5b50565b6000815190506200012681620000fb565b92915050565b6000806040838503121562000146576200014562000087565b5b60006200015685828601620000b0565b9250506020620001698582860162000115565b9150509250929050565b610ea280620001836000396000f3fe60806040526004361061009c5760003560e01c80638a9cfd55116100645780638a9cfd55146101a4578063bb0c8298146101cd578063d7d1bbdb146101f8578063d7e64c0014610221578063e7b668b41461024c578063e8b5e51f146102755761009c565b80633410452a146100a15780634051ddac146100cc578063481c6a75146100fb5780636f7bc9be1461012657806381d12c5814610163575b600080fd5b3480156100ad57600080fd5b506100b661027f565b6040516100c391906108a7565b60405180910390f35b3480156100d857600080fd5b506100e161028b565b6040516100f2959493929190610903565b60405180910390f35b34801561010757600080fd5b506101106102d4565b60405161011d9190610956565b60405180910390f35b34801561013257600080fd5b5061014d600480360381019061014891906109b1565b6102fa565b60405161015a91906109f9565b60405180910390f35b34801561016f57600080fd5b5061018a60048036038101906101859190610a40565b61031a565b60405161019b959493929190610b06565b60405180910390f35b3480156101b057600080fd5b506101cb60048036038101906101c69190610c95565b610415565b005b3480156101d957600080fd5b506101e2610524565b6040516101ef91906108a7565b60405180910390f35b34801561020457600080fd5b5061021f600480360381019061021a9190610a40565b61052a565b005b34801561022d57600080fd5b50610236610676565b60405161024391906108a7565b60405180910390f35b34801561025857600080fd5b50610273600480360381019061026e9190610a40565b61067c565b005b61027d61076b565b005b60008080549050905090565b600080600080600060025447600080549050600454600160009054906101000a900473ffffffffffffffffffffffffffffffffffffffff16945094509450945094509091929394565b600160009054906101000a900473ffffffffffffffffffffffffffffffffffffffff1681565b60036020528060005260406000206000915054906101000a900460ff1681565b6000818154811061032a57600080fd5b906000526020600020906005020160009150905080600001805461034d90610d33565b80601f016020809104026020016040519081016040528092919081815260200182805461037990610d33565b80156103c65780601f1061039b576101008083540402835291602001916103c6565b820191906000526020600020905b8154815290600101906020018083116103a957829003601f168201915b5050505050908060010154908060020160009054906101000a900473ffffffffffffffffffffffffffffffffffffffff16908060020160149054906101000a900460ff16908060030154905085565b600160009054906101000a900473ffffffffffffffffffffffffffffffffffffffff1673ffffffffffffffffffffffffffffffffffffffff163373ffffffffffffffffffffffffffffffffffffffff161461046f57600080fd5b6000806001816001815401808255809150500390600052602060002090600502019050838160000190805190602001906104aa9291906107eb565b50828160010181905550818160020160006101000a81548173ffffffffffffffffffffffffffffffffffffffff021916908373ffffffffffffffffffffffffffffffffffffffff16021790555060008160020160146101000a81548160ff0219169083151502179055506000816003018190555050505050565b60025481565b600080828154811061053f5761053e610d65565b5b90600052602060002090600502019050600360003373ffffffffffffffffffffffffffffffffffffffff1673ffffffffffffffffffffffffffffffffffffffff16815260200190815260200160002060009054906101000a900460ff166105a557600080fd5b8060040160003373ffffffffffffffffffffffffffffffffffffffff1673ffffffffffffffffffffffffffffffffffffffff16815260200190815260200160002060009054906101000a900460ff16156105fe57600080fd5b60018160040160003373ffffffffffffffffffffffffffffffffffffffff1673ffffffffffffffffffffffffffffffffffffffff16815260200190815260200160002060006101000a81548160ff02191690831515021790555080600301600081548092919061066d90610dc3565b91905055505050565b60045481565b600080828154811061069157610690610d65565b5b9060005260206000209060050201905060026004546106b09190610e3b565b8160030154116106bf57600080fd5b8060020160149054906101000a900460ff16156106db57600080fd5b8060020160009054906101000a900473ffffffffffffffffffffffffffffffffffffffff1673ffffffffffffffffffffffffffffffffffffffff166108fc82600101549081150290604051600060405180830381858888f19350505050158015610749573d6000803e3d6000fd5b5060018160020160146101000a81548160ff0219169083151502179055505050565b600254341161077957600080fd5b6001600360003373ffffffffffffffffffffffffffffffffffffffff1673ffffffffffffffffffffffffffffffffffffffff16815260200190815260200160002060006101000a81548160ff021916908315150217905550600460008154809291906107e490610dc3565b9190505550565b8280546107f790610d33565b90600052602060002090601f0160209004810192826108195760008555610860565b82601f1061083257805160ff1916838001178555610860565b82800160010185558215610860579182015b8281111561085f578251825591602001919060010190610844565b5b50905061086d9190610871565b5090565b5b8082111561088a576000816000905550600101610872565b5090565b6000819050919050565b6108a18161088e565b82525050565b60006020820190506108bc6000830184610898565b92915050565b600073ffffffffffffffffffffffffffffffffffffffff82169050919050565b60006108ed826108c2565b9050919050565b6108fd816108e2565b82525050565b600060a0820190506109186000830188610898565b6109256020830187610898565b6109326040830186610898565b61093f6060830185610898565b61094c60808301846108f4565b9695505050505050565b600060208201905061096b60008301846108f4565b92915050565b6000604051905090565b600080fd5b600080fd5b61098e816108e2565b811461099957600080fd5b50565b6000813590506109ab81610985565b92915050565b6000602082840312156109c7576109c661097b565b5b60006109d58482850161099c565b91505092915050565b60008115159050919050565b6109f3816109de565b82525050565b6000602082019050610a0e60008301846109ea565b92915050565b610a1d8161088e565b8114610a2857600080fd5b50565b600081359050610a3a81610a14565b92915050565b600060208284031215610a5657610a5561097b565b5b6000610a6484828501610a2b565b91505092915050565b600081519050919050565b600082825260208201905092915050565b60005b83811015610aa7578082015181840152602081019050610a8c565b83811115610ab6576000848401525b50505050565b6000601f19601f8301169050919050565b6000610ad882610a6d565b610ae28185610a78565b9350610af2818560208601610a89565b610afb81610abc565b840191505092915050565b600060a0820190508181036000830152610b208188610acd565b9050610b2f6020830187610898565b610b3c60408301866108f4565b610b4960608301856109ea565b610b566080830184610898565b9695505050505050565b600080fd5b600080fd5b7f4e487b7100000000000000000000000000000000000000000000000000000000600052604160045260246000fd5b610ba282610abc565b810181811067ffffffffffffffff82111715610bc157610bc0610b6a565b5b80604052505050565b6000610bd4610971565b9050610be08282610b99565b919050565b600067ffffffffffffffff821115610c0057610bff610b6a565b5b610c0982610abc565b9050602081019050919050565b82818337600083830152505050565b6000610c38610c3384610be5565b610bca565b905082815260208101848484011115610c5457610c53610b65565b5b610c5f848285610c16565b509392505050565b600082601f830112610c7c57610c7b610b60565b5b8135610c8c848260208601610c25565b91505092915050565b600080600060608486031215610cae57610cad61097b565b5b600084013567ffffffffffffffff811115610ccc57610ccb610980565b5b610cd886828701610c67565b9350506020610ce986828701610a2b565b9250506040610cfa8682870161099c565b9150509250925092565b7f4e487b7100000000000000000000000000000000000000000000000000000000600052602260045260246000fd5b60006002820490506001821680610d4b57607f821691505b60208210811415610d5f57610d5e610d04565b5b50919050565b7f4e487b7100000000000000000000000000000000000000000000000000000000600052603260045260246000fd5b7f4e487b7100000000000000000000000000000000000000000000000000000000600052601160045260246000fd5b6000610dce8261088e565b91507fffffffffffffffffffffffffffffffffffffffffffffffffffffffffffffffff821415610e0157610e00610d94565b5b600182019050919050565b7f4e487b7100000000000000000000000000000000000000000000000000000000600052601260045260246000fd5b6000610e468261088e565b9150610e518361088e565b925082610e6157610e60610e0c565b5b82820490509291505056fea2646970667358221220138dc4e3c7a1aa28e3b6e9f8aedb12486e64c4a8c2219f1301bf290e3af6f1bc64736f6c63430008090033","opcodes":"PUSH1 0x80 PUSH1 0x40 MSTORE CALLVALUE DUP1 ISZERO PUSH3 0x11 JUMPI PUSH1 0x0 DUP1 REVERT JUMPDEST POP PUSH1 0x40 MLOAD PUSH3 0x1025 CODESIZE SUB DUP1 PUSH3 0x1025 DUP4 CODECOPY DUP2 DUP2 ADD PUSH1 0x40 MSTORE DUP2 ADD SWAP1 PUSH3 0x37 SWAP2 SWAP1 PUSH3 0x12C JUMP JUMPDEST DUP1 PUSH1 0x1 PUSH1 0x0 PUSH2 0x100 EXP DUP2 SLOAD DUP2 PUSH20 0xFFFFFFFFFFFFFFFFFFFFFFFFFFFFFFFFFFFFFFFF MUL NOT AND SWAP1 DUP4 PUSH20 0xFFFFFFFFFFFFFFFFFFFFFFFFFFFFFFFFFFFFFFFF AND MUL OR SWAP1 SSTORE POP DUP2 PUSH1 0x2 DUP2 SWAP1 SSTORE POP POP POP PUSH3 0x173 JUMP JUMPDEST PUSH1 0x0 DUP1 REVERT JUMPDEST PUSH1 0x0 DUP2 SWAP1 POP SWAP2 SWAP1 POP JUMP JUMPDEST PUSH3 0xA1 DUP2 PUSH3 0x8C JUMP JUMPDEST DUP2 EQ PUSH3 0xAD JUMPI PUSH1 0x0 DUP1 REVERT JUMPDEST POP JUMP JUMPDEST PUSH1 0x0 DUP2 MLOAD SWAP1 POP PUSH3 0xC1 DUP2 PUSH3 0x96 JUMP JUMPDEST SWAP3 SWAP2 POP POP JUMP JUMPDEST PUSH1 0x0 PUSH20 0xFFFFFFFFFFFFFFFFFFFFFFFFFFFFFFFFFFFFFFFF DUP3 AND SWAP1 POP SWAP2 SWAP1 POP JUMP JUMPDEST PUSH1 0x0 PUSH3 0xF4 DUP3 PUSH3 0xC7 JUMP JUMPDEST SWAP1 POP SWAP2 SWAP1 POP JUMP JUMPDEST PUSH3 0x106 DUP2 PUSH3 0xE7 JUMP JUMPDEST DUP2 EQ PUSH3 0x112 JUMPI PUSH1 0x0 DUP1 REVERT JUMPDEST POP JUMP JUMPDEST PUSH1 0x0 DUP2 MLOAD SWAP1 POP PUSH3 0x126 DUP2 PUSH3 0xFB JUMP JUMPDEST SWAP3 SWAP2 POP POP JUMP JUMPDEST PUSH1 0x0 DUP1 PUSH1 0x40 DUP4 DUP6 SUB SLT ISZERO PUSH3 0x146 JUMPI PUSH3 0x145 PUSH3 0x87 JUMP JUMPDEST JUMPDEST PUSH1 0x0 PUSH3 0x156 DUP6 DUP3 DUP7 ADD PUSH3 0xB0 JUMP JUMPDEST SWAP3 POP POP PUSH1 0x20 PUSH3 0x169 DUP6 DUP3 DUP7 ADD PUSH3 0x115 JUMP JUMPDEST SWAP2 POP POP SWAP3 POP SWAP3 SWAP1 POP JUMP JUMPDEST PUSH2 0xEA2 DUP1 PUSH3 0x183 PUSH1 0x0 CODECOPY PUSH1 0x0 RETURN INVALID PUSH1 0x80 PUSH1 0x40 MSTORE PUSH1 0x4 CALLDATASIZE LT PUSH2 0x9C JUMPI PUSH1 0x0 CALLDATALOAD PUSH1 0xE0 SHR DUP1 PUSH4 0x8A9CFD55 GT PUSH2 0x64 JUMPI DUP1 PUSH4 0x8A9CFD55 EQ PUSH2 0x1A4 JUMPI DUP1 PUSH4 0xBB0C8298 EQ PUSH2 0x1CD JUMPI DUP1 PUSH4 0xD7D1BBDB EQ PUSH2 0x1F8 JUMPI DUP1 PUSH4 0xD7E64C00 EQ PUSH2 0x221 JUMPI DUP1 PUSH4 0xE7B668B4 EQ PUSH2 0x24C JUMPI DUP1 PUSH4 0xE8B5E51F EQ PUSH2 0x275 JUMPI PUSH2 0x9C JUMP JUMPDEST DUP1 PUSH4 0x3410452A EQ PUSH2 0xA1 JUMPI DUP1 PUSH4 0x4051DDAC EQ PUSH2 0xCC JUMPI DUP1 PUSH4 0x481C6A75 EQ PUSH2 0xFB JUMPI DUP1 PUSH4 0x6F7BC9BE EQ PUSH2 0x126 JUMPI DUP1 PUSH4 0x81D12C58 EQ PUSH2 0x163 JUMPI JUMPDEST PUSH1 0x0 DUP1 REVERT JUMPDEST CALLVALUE DUP1 ISZERO PUSH2 0xAD JUMPI PUSH1 0x0 DUP1 REVERT JUMPDEST POP PUSH2 0xB6 PUSH2 0x27F JUMP JUMPDEST PUSH1 0x40 MLOAD PUSH2 0xC3 SWAP2 SWAP1 PUSH2 0x8A7 JUMP JUMPDEST PUSH1 0x40 MLOAD DUP1 SWAP2 SUB SWAP1 RETURN JUMPDEST CALLVALUE DUP1 ISZERO PUSH2 0xD8 JUMPI PUSH1 0x0 DUP1 REVERT JUMPDEST POP PUSH2 0xE1 PUSH2 0x28B JUMP JUMPDEST PUSH1 0x40 MLOAD PUSH2 0xF2 SWAP6 SWAP5 SWAP4 SWAP3 SWAP2 SWAP1 PUSH2 0x903 JUMP JUMPDEST PUSH1 0x40 MLOAD DUP1 SWAP2 SUB SWAP1 RETURN JUMPDEST CALLVALUE DUP1 ISZERO PUSH2 0x107 JUMPI PUSH1 0x0 DUP1 REVERT JUMPDEST POP PUSH2 0x110 PUSH2 0x2D4 JUMP JUMPDEST PUSH1 0x40 MLOAD PUSH2 0x11D SWAP2 SWAP1 PUSH2 0x956 JUMP JUMPDEST PUSH1 0x40 MLOAD DUP1 SWAP2 SUB SWAP1 RETURN JUMPDEST CALLVALUE DUP1 ISZERO PUSH2 0x132 JUMPI PUSH1 0x0 DUP1 REVERT JUMPDEST POP PUSH2 0x14D PUSH1 0x4 DUP1 CALLDATASIZE SUB DUP2 ADD SWAP1 PUSH2 0x148 SWAP2 SWAP1 PUSH2 0x9B1 JUMP JUMPDEST PUSH2 0x2FA JUMP JUMPDEST PUSH1 0x40 MLOAD PUSH2 0x15A SWAP2 SWAP1 PUSH2 0x9F9 JUMP JUMPDEST PUSH1 0x40 MLOAD DUP1 SWAP2 SUB SWAP1 RETURN JUMPDEST CALLVALUE DUP1 ISZERO PUSH2 0x16F JUMPI PUSH1 0x0 DUP1 REVERT JUMPDEST POP PUSH2 0x18A PUSH1 0x4 DUP1 CALLDATASIZE SUB DUP2 ADD SWAP1 PUSH2 0x185 SWAP2 SWAP1 PUSH2 0xA40 JUMP JUMPDEST PUSH2 0x31A JUMP JUMPDEST PUSH1 0x40 MLOAD PUSH2 0x19B SWAP6 SWAP5 SWAP4 SWAP3 SWAP2 SWAP1 PUSH2 0xB06 JUMP JUMPDEST PUSH1 0x40 MLOAD DUP1 SWAP2 SUB SWAP1 RETURN JUMPDEST CALLVALUE DUP1 ISZERO PUSH2 0x1B0 JUMPI PUSH1 0x0 DUP1 REVERT JUMPDEST POP PUSH2 0x1CB PUSH1 0x4 DUP1 CALLDATASIZE SUB DUP2 ADD SWAP1 PUSH2 0x1C6 SWAP2 SWAP1 PUSH2 0xC95 JUMP JUMPDEST PUSH2 0x415 JUMP JUMPDEST STOP JUMPDEST CALLVALUE DUP1 ISZERO PUSH2 0x1D9 JUMPI PUSH1 0x0 DUP1 REVERT JUMPDEST POP PUSH2 0x1E2 PUSH2 0x524 JUMP JUMPDEST PUSH1 0x40 MLOAD PUSH2 0x1EF SWAP2 SWAP1 PUSH2 0x8A7 JUMP JUMPDEST PUSH1 0x40 MLOAD DUP1 SWAP2 SUB SWAP1 RETURN JUMPDEST CALLVALUE DUP1 ISZERO PUSH2 0x204 JUMPI PUSH1 0x0 DUP1 REVERT JUMPDEST POP PUSH2 0x21F PUSH1 0x4 DUP1 CALLDATASIZE SUB DUP2 ADD SWAP1 PUSH2 0x21A SWAP2 SWAP1 PUSH2 0xA40 JUMP JUMPDEST PUSH2 0x52A JUMP JUMPDEST STOP JUMPDEST CALLVALUE DUP1 ISZERO PUSH2 0x22D JUMPI PUSH1 0x0 DUP1 REVERT JUMPDEST POP PUSH2 0x236 PUSH2 0x676 JUMP JUMPDEST PUSH1 0x40 MLOAD PUSH2 0x243 SWAP2 SWAP1 PUSH2 0x8A7 JUMP JUMPDEST PUSH1 0x40 MLOAD DUP1 SWAP2 SUB SWAP1 RETURN JUMPDEST CALLVALUE DUP1 ISZERO PUSH2 0x258 JUMPI PUSH1 0x0 DUP1 REVERT JUMPDEST POP PUSH2 0x273 PUSH1 0x4 DUP1 CALLDATASIZE SUB DUP2 ADD SWAP1 PUSH2 0x26E SWAP2 SWAP1 PUSH2 0xA40 JUMP JUMPDEST PUSH2 0x67C JUMP JUMPDEST STOP JUMPDEST PUSH2 0x27D PUSH2 0x76B JUMP JUMPDEST STOP JUMPDEST PUSH1 0x0 DUP1 DUP1 SLOAD SWAP1 POP SWAP1 POP SWAP1 JUMP JUMPDEST PUSH1 0x0 DUP1 PUSH1 0x0 DUP1 PUSH1 0x0 PUSH1 0x2 SLOAD SELFBALANCE PUSH1 0x0 DUP1 SLOAD SWAP1 POP PUSH1 0x4 SLOAD PUSH1 0x1 PUSH1 0x0 SWAP1 SLOAD SWAP1 PUSH2 0x100 EXP SWAP1 DIV PUSH20 0xFFFFFFFFFFFFFFFFFFFFFFFFFFFFFFFFFFFFFFFF AND SWAP5 POP SWAP5 POP SWAP5 POP SWAP5 POP SWAP5 POP SWAP1 SWAP2 SWAP3 SWAP4 SWAP5 JUMP JUMPDEST PUSH1 0x1 PUSH1 0x0 SWAP1 SLOAD SWAP1 PUSH2 0x100 EXP SWAP1 DIV PUSH20 0xFFFFFFFFFFFFFFFFFFFFFFFFFFFFFFFFFFFFFFFF AND DUP2 JUMP JUMPDEST PUSH1 0x3 PUSH1 0x20 MSTORE DUP1 PUSH1 0x0 MSTORE PUSH1 0x40 PUSH1 0x0 KECCAK256 PUSH1 0x0 SWAP2 POP SLOAD SWAP1 PUSH2 0x100 EXP SWAP1 DIV PUSH1 0xFF AND DUP2 JUMP JUMPDEST PUSH1 0x0 DUP2 DUP2 SLOAD DUP2 LT PUSH2 0x32A JUMPI PUSH1 0x0 DUP1 REVERT JUMPDEST SWAP1 PUSH1 0x0 MSTORE PUSH1 0x20 PUSH1 0x0 KECCAK256 SWAP1 PUSH1 0x5 MUL ADD PUSH1 0x0 SWAP2 POP SWAP1 POP DUP1 PUSH1 0x0 ADD DUP1 SLOAD PUSH2 0x34D SWAP1 PUSH2 0xD33 JUMP JUMPDEST DUP1 PUSH1 0x1F ADD PUSH1 0x20 DUP1 SWAP2 DIV MUL PUSH1 0x20 ADD PUSH1 0x40 MLOAD SWAP1 DUP2 ADD PUSH1 0x40 MSTORE DUP1 SWAP3 SWAP2 SWAP1 DUP2 DUP2 MSTORE PUSH1 0x20 ADD DUP3 DUP1 SLOAD PUSH2 0x379 SWAP1 PUSH2 0xD33 JUMP JUMPDEST DUP1 ISZERO PUSH2 0x3C6 JUMPI DUP1 PUSH1 0x1F LT PUSH2 0x39B JUMPI PUSH2 0x100 DUP1 DUP4 SLOAD DIV MUL DUP4 MSTORE SWAP2 PUSH1 0x20 ADD SWAP2 PUSH2 0x3C6 JUMP JUMPDEST DUP3 ADD SWAP2 SWAP1 PUSH1 0x0 MSTORE PUSH1 0x20 PUSH1 0x0 KECCAK256 SWAP1 JUMPDEST DUP2 SLOAD DUP2 MSTORE SWAP1 PUSH1 0x1 ADD SWAP1 PUSH1 0x20 ADD DUP1 DUP4 GT PUSH2 0x3A9 JUMPI DUP3 SWAP1 SUB PUSH1 0x1F AND DUP3 ADD SWAP2 JUMPDEST POP POP POP POP POP SWAP1 DUP1 PUSH1 0x1 ADD SLOAD SWAP1 DUP1 PUSH1 0x2 ADD PUSH1 0x0 SWAP1 SLOAD SWAP1 PUSH2 0x100 EXP SWAP1 DIV PUSH20 0xFFFFFFFFFFFFFFFFFFFFFFFFFFFFFFFFFFFFFFFF AND SWAP1 DUP1 PUSH1 0x2 ADD PUSH1 0x14 SWAP1 SLOAD SWAP1 PUSH2 0x100 EXP SWAP1 DIV PUSH1 0xFF AND SWAP1 DUP1 PUSH1 0x3 ADD SLOAD SWAP1 POP DUP6 JUMP JUMPDEST PUSH1 0x1 PUSH1 0x0 SWAP1 SLOAD SWAP1 PUSH2 0x100 EXP SWAP1 DIV PUSH20 0xFFFFFFFFFFFFFFFFFFFFFFFFFFFFFFFFFFFFFFFF AND PUSH20 0xFFFFFFFFFFFFFFFFFFFFFFFFFFFFFFFFFFFFFFFF AND CALLER PUSH20 0xFFFFFFFFFFFFFFFFFFFFFFFFFFFFFFFFFFFFFFFF AND EQ PUSH2 0x46F JUMPI PUSH1 0x0 DUP1 REVERT JUMPDEST PUSH1 0x0 DUP1 PUSH1 0x1 DUP2 PUSH1 0x1 DUP2 SLOAD ADD DUP1 DUP3 SSTORE DUP1 SWAP2 POP POP SUB SWAP1 PUSH1 0x0 MSTORE PUSH1 0x20 PUSH1 0x0 KECCAK256 SWAP1 PUSH1 0x5 MUL ADD SWAP1 POP DUP4 DUP2 PUSH1 0x0 ADD SWAP1 DUP1 MLOAD SWAP1 PUSH1 0x20 ADD SWAP1 PUSH2 0x4AA SWAP3 SWAP2 SWAP1 PUSH2 0x7EB JUMP JUMPDEST POP DUP3 DUP2 PUSH1 0x1 ADD DUP2 SWAP1 SSTORE POP DUP2 DUP2 PUSH1 0x2 ADD PUSH1 0x0 PUSH2 0x100 EXP DUP2 SLOAD DUP2 PUSH20 0xFFFFFFFFFFFFFFFFFFFFFFFFFFFFFFFFFFFFFFFF MUL NOT AND SWAP1 DUP4 PUSH20 0xFFFFFFFFFFFFFFFFFFFFFFFFFFFFFFFFFFFFFFFF AND MUL OR SWAP1 SSTORE POP PUSH1 0x0 DUP2 PUSH1 0x2 ADD PUSH1 0x14 PUSH2 0x100 EXP DUP2 SLOAD DUP2 PUSH1 0xFF MUL NOT AND SWAP1 DUP4 ISZERO ISZERO MUL OR SWAP1 SSTORE POP PUSH1 0x0 DUP2 PUSH1 0x3 ADD DUP2 SWAP1 SSTORE POP POP POP POP POP JUMP JUMPDEST PUSH1 0x2 SLOAD DUP2 JUMP JUMPDEST PUSH1 0x0 DUP1 DUP3 DUP2 SLOAD DUP2 LT PUSH2 0x53F JUMPI PUSH2 0x53E PUSH2 0xD65 JUMP JUMPDEST JUMPDEST SWAP1 PUSH1 0x0 MSTORE PUSH1 0x20 PUSH1 0x0 KECCAK256 SWAP1 PUSH1 0x5 MUL ADD SWAP1 POP PUSH1 0x3 PUSH1 0x0 CALLER PUSH20 0xFFFFFFFFFFFFFFFFFFFFFFFFFFFFFFFFFFFFFFFF AND PUSH20 0xFFFFFFFFFFFFFFFFFFFFFFFFFFFFFFFFFFFFFFFF AND DUP2 MSTORE PUSH1 0x20 ADD SWAP1 DUP2 MSTORE PUSH1 0x20 ADD PUSH1 0x0 KECCAK256 PUSH1 0x0 SWAP1 SLOAD SWAP1 PUSH2 0x100 EXP SWAP1 DIV PUSH1 0xFF AND PUSH2 0x5A5 JUMPI PUSH1 0x0 DUP1 REVERT JUMPDEST DUP1 PUSH1 0x4 ADD PUSH1 0x0 CALLER PUSH20 0xFFFFFFFFFFFFFFFFFFFFFFFFFFFFFFFFFFFFFFFF AND PUSH20 0xFFFFFFFFFFFFFFFFFFFFFFFFFFFFFFFFFFFFFFFF AND DUP2 MSTORE PUSH1 0x20 ADD SWAP1 DUP2 MSTORE PUSH1 0x20 ADD PUSH1 0x0 KECCAK256 PUSH1 0x0 SWAP1 SLOAD SWAP1 PUSH2 0x100 EXP SWAP1 DIV PUSH1 0xFF AND ISZERO PUSH2 0x5FE JUMPI PUSH1 0x0 DUP1 REVERT JUMPDEST PUSH1 0x1 DUP2 PUSH1 0x4 ADD PUSH1 0x0 CALLER PUSH20 0xFFFFFFFFFFFFFFFFFFFFFFFFFFFFFFFFFFFFFFFF AND PUSH20 0xFFFFFFFFFFFFFFFFFFFFFFFFFFFFFFFFFFFFFFFF AND DUP2 MSTORE PUSH1 0x20 ADD SWAP1 DUP2 MSTORE PUSH1 0x20 ADD PUSH1 0x0 KECCAK256 PUSH1 0x0 PUSH2 0x100 EXP DUP2 SLOAD DUP2 PUSH1 0xFF MUL NOT AND SWAP1 DUP4 ISZERO ISZERO MUL OR SWAP1 SSTORE POP DUP1 PUSH1 0x3 ADD PUSH1 0x0 DUP2 SLOAD DUP1 SWAP3 SWAP2 SWAP1 PUSH2 0x66D SWAP1 PUSH2 0xDC3 JUMP JUMPDEST SWAP2 SWAP1 POP SSTORE POP POP POP JUMP JUMPDEST PUSH1 0x4 SLOAD DUP2 JUMP JUMPDEST PUSH1 0x0 DUP1 DUP3 DUP2 SLOAD DUP2 LT PUSH2 0x691 JUMPI PUSH2 0x690 PUSH2 0xD65 JUMP JUMPDEST JUMPDEST SWAP1 PUSH1 0x0 MSTORE PUSH1 0x20 PUSH1 0x0 KECCAK256 SWAP1 PUSH1 0x5 MUL ADD SWAP1 POP PUSH1 0x2 PUSH1 0x4 SLOAD PUSH2 0x6B0 SWAP2 SWAP1 PUSH2 0xE3B JUMP JUMPDEST DUP2 PUSH1 0x3 ADD SLOAD GT PUSH2 0x6BF JUMPI PUSH1 0x0 DUP1 REVERT JUMPDEST DUP1 PUSH1 0x2 ADD PUSH1 0x14 SWAP1 SLOAD SWAP1 PUSH2 0x100 EXP SWAP1 DIV PUSH1 0xFF AND ISZERO PUSH2 0x6DB JUMPI PUSH1 0x0 DUP1 REVERT JUMPDEST DUP1 PUSH1 0x2 ADD PUSH1 0x0 SWAP1 SLOAD SWAP1 PUSH2 0x100 EXP SWAP1 DIV PUSH20 0xFFFFFFFFFFFFFFFFFFFFFFFFFFFFFFFFFFFFFFFF AND PUSH20 0xFFFFFFFFFFFFFFFFFFFFFFFFFFFFFFFFFFFFFFFF AND PUSH2 0x8FC DUP3 PUSH1 0x1 ADD SLOAD SWAP1 DUP2 ISZERO MUL SWAP1 PUSH1 0x40 MLOAD PUSH1 0x0 PUSH1 0x40 MLOAD DUP1 DUP4 SUB DUP2 DUP6 DUP9 DUP9 CALL SWAP4 POP POP POP POP ISZERO DUP1 ISZERO PUSH2 0x749 JUMPI RETURNDATASIZE PUSH1 0x0 DUP1 RETURNDATACOPY RETURNDATASIZE PUSH1 0x0 REVERT JUMPDEST POP PUSH1 0x1 DUP2 PUSH1 0x2 ADD PUSH1 0x14 PUSH2 0x100 EXP DUP2 SLOAD DUP2 PUSH1 0xFF MUL NOT AND SWAP1 DUP4 ISZERO ISZERO MUL OR SWAP1 SSTORE POP POP POP JUMP JUMPDEST PUSH1 0x2 SLOAD CALLVALUE GT PUSH2 0x779 JUMPI PUSH1 0x0 DUP1 REVERT JUMPDEST PUSH1 0x1 PUSH1 0x3 PUSH1 0x0 CALLER PUSH20 0xFFFFFFFFFFFFFFFFFFFFFFFFFFFFFFFFFFFFFFFF AND PUSH20 0xFFFFFFFFFFFFFFFFFFFFFFFFFFFFFFFFFFFFFFFF AND DUP2 MSTORE PUSH1 0x20 ADD SWAP1 DUP2 MSTORE PUSH1 0x20 ADD PUSH1 0x0 KECCAK256 PUSH1 0x0 PUSH2 0x100 EXP DUP2 SLOAD DUP2 PUSH1 0xFF MUL NOT AND SWAP1 DUP4 ISZERO ISZERO MUL OR SWAP1 SSTORE POP PUSH1 0x4 PUSH1 0x0 DUP2 SLOAD DUP1 SWAP3 SWAP2 SWAP1 PUSH2 0x7E4 SWAP1 PUSH2 0xDC3 JUMP JUMPDEST SWAP2 SWAP1 POP SSTORE POP JUMP JUMPDEST DUP3 DUP1 SLOAD PUSH2 0x7F7 SWAP1 PUSH2 0xD33 JUMP JUMPDEST SWAP1 PUSH1 0x0 MSTORE PUSH1 0x20 PUSH1 0x0 KECCAK256 SWAP1 PUSH1 0x1F ADD PUSH1 0x20 SWAP1 DIV DUP2 ADD SWAP3 DUP3 PUSH2 0x819 JUMPI PUSH1 0x0 DUP6 SSTORE PUSH2 0x860 JUMP JUMPDEST DUP3 PUSH1 0x1F LT PUSH2 0x832 JUMPI DUP1 MLOAD PUSH1 0xFF NOT AND DUP4 DUP1 ADD OR DUP6 SSTORE PUSH2 0x860 JUMP JUMPDEST DUP3 DUP1 ADD PUSH1 0x1 ADD DUP6 SSTORE DUP3 ISZERO PUSH2 0x860 JUMPI SWAP2 DUP3 ADD JUMPDEST DUP3 DUP2 GT ISZERO PUSH2 0x85F JUMPI DUP3 MLOAD DUP3 SSTORE SWAP2 PUSH1 0x20 ADD SWAP2 SWAP1 PUSH1 0x1 ADD SWAP1 PUSH2 0x844 JUMP JUMPDEST JUMPDEST POP SWAP1 POP PUSH2 0x86D SWAP2 SWAP1 PUSH2 0x871 JUMP JUMPDEST POP SWAP1 JUMP JUMPDEST JUMPDEST DUP1 DUP3 GT ISZERO PUSH2 0x88A JUMPI PUSH1 0x0 DUP2 PUSH1 0x0 SWAP1 SSTORE POP PUSH1 0x1 ADD PUSH2 0x872 JUMP JUMPDEST POP SWAP1 JUMP JUMPDEST PUSH1 0x0 DUP2 SWAP1 POP SWAP2 SWAP1 POP JUMP JUMPDEST PUSH2 0x8A1 DUP2 PUSH2 0x88E JUMP JUMPDEST DUP3 MSTORE POP POP JUMP JUMPDEST PUSH1 0x0 PUSH1 0x20 DUP3 ADD SWAP1 POP PUSH2 0x8BC PUSH1 0x0 DUP4 ADD DUP5 PUSH2 0x898 JUMP JUMPDEST SWAP3 SWAP2 POP POP JUMP JUMPDEST PUSH1 0x0 PUSH20 0xFFFFFFFFFFFFFFFFFFFFFFFFFFFFFFFFFFFFFFFF DUP3 AND SWAP1 POP SWAP2 SWAP1 POP JUMP JUMPDEST PUSH1 0x0 PUSH2 0x8ED DUP3 PUSH2 0x8C2 JUMP JUMPDEST SWAP1 POP SWAP2 SWAP1 POP JUMP JUMPDEST PUSH2 0x8FD DUP2 PUSH2 0x8E2 JUMP JUMPDEST DUP3 MSTORE POP POP JUMP JUMPDEST PUSH1 0x0 PUSH1 0xA0 DUP3 ADD SWAP1 POP PUSH2 0x918 PUSH1 0x0 DUP4 ADD DUP9 PUSH2 0x898 JUMP JUMPDEST PUSH2 0x925 PUSH1 0x20 DUP4 ADD DUP8 PUSH2 0x898 JUMP JUMPDEST PUSH2 0x932 PUSH1 0x40 DUP4 ADD DUP7 PUSH2 0x898 JUMP JUMPDEST PUSH2 0x93F PUSH1 0x60 DUP4 ADD DUP6 PUSH2 0x898 JUMP JUMPDEST PUSH2 0x94C PUSH1 0x80 DUP4 ADD DUP5 PUSH2 0x8F4 JUMP JUMPDEST SWAP7 SWAP6 POP POP POP POP POP POP JUMP JUMPDEST PUSH1 0x0 PUSH1 0x20 DUP3 ADD SWAP1 POP PUSH2 0x96B PUSH1 0x0 DUP4 ADD DUP5 PUSH2 0x8F4 JUMP JUMPDEST SWAP3 SWAP2 POP POP JUMP JUMPDEST PUSH1 0x0 PUSH1 0x40 MLOAD SWAP1 POP SWAP1 JUMP JUMPDEST PUSH1 0x0 DUP1 REVERT JUMPDEST PUSH1 0x0 DUP1 REVERT JUMPDEST PUSH2 0x98E DUP2 PUSH2 0x8E2 JUMP JUMPDEST DUP2 EQ PUSH2 0x999 JUMPI PUSH1 0x0 DUP1 REVERT JUMPDEST POP JUMP JUMPDEST PUSH1 0x0 DUP2 CALLDATALOAD SWAP1 POP PUSH2 0x9AB DUP2 PUSH2 0x985 JUMP JUMPDEST SWAP3 SWAP2 POP POP JUMP JUMPDEST PUSH1 0x0 PUSH1 0x20 DUP3 DUP5 SUB SLT ISZERO PUSH2 0x9C7 JUMPI PUSH2 0x9C6 PUSH2 0x97B JUMP JUMPDEST JUMPDEST PUSH1 0x0 PUSH2 0x9D5 DUP5 DUP3 DUP6 ADD PUSH2 0x99C JUMP JUMPDEST SWAP2 POP POP SWAP3 SWAP2 POP POP JUMP JUMPDEST PUSH1 0x0 DUP2 ISZERO ISZERO SWAP1 POP SWAP2 SWAP1 POP JUMP JUMPDEST PUSH2 0x9F3 DUP2 PUSH2 0x9DE JUMP JUMPDEST DUP3 MSTORE POP POP JUMP JUMPDEST PUSH1 0x0 PUSH1 0x20 DUP3 ADD SWAP1 POP PUSH2 0xA0E PUSH1 0x0 DUP4 ADD DUP5 PUSH2 0x9EA JUMP JUMPDEST SWAP3 SWAP2 POP POP JUMP JUMPDEST PUSH2 0xA1D DUP2 PUSH2 0x88E JUMP JUMPDEST DUP2 EQ PUSH2 0xA28 JUMPI PUSH1 0x0 DUP1 REVERT JUMPDEST POP JUMP JUMPDEST PUSH1 0x0 DUP2 CALLDATALOAD SWAP1 POP PUSH2 0xA3A DUP2 PUSH2 0xA14 JUMP JUMPDEST SWAP3 SWAP2 POP POP JUMP JUMPDEST PUSH1 0x0 PUSH1 0x20 DUP3 DUP5 SUB SLT ISZERO PUSH2 0xA56 JUMPI PUSH2 0xA55 PUSH2 0x97B JUMP JUMPDEST JUMPDEST PUSH1 0x0 PUSH2 0xA64 DUP5 DUP3 DUP6 ADD PUSH2 0xA2B JUMP JUMPDEST SWAP2 POP POP SWAP3 SWAP2 POP POP JUMP JUMPDEST PUSH1 0x0 DUP2 MLOAD SWAP1 POP SWAP2 SWAP1 POP JUMP JUMPDEST PUSH1 0x0 DUP3 DUP3 MSTORE PUSH1 0x20 DUP3 ADD SWAP1 POP SWAP3 SWAP2 POP POP JUMP JUMPDEST PUSH1 0x0 JUMPDEST DUP4 DUP2 LT ISZERO PUSH2 0xAA7 JUMPI DUP1 DUP3 ADD MLOAD DUP2 DUP5 ADD MSTORE PUSH1 0x20 DUP2 ADD SWAP1 POP PUSH2 0xA8C JUMP JUMPDEST DUP4 DUP2 GT ISZERO PUSH2 0xAB6 JUMPI PUSH1 0x0 DUP5 DUP5 ADD MSTORE JUMPDEST POP POP POP POP JUMP JUMPDEST PUSH1 0x0 PUSH1 0x1F NOT PUSH1 0x1F DUP4 ADD AND SWAP1 POP SWAP2 SWAP1 POP JUMP JUMPDEST PUSH1 0x0 PUSH2 0xAD8 DUP3 PUSH2 0xA6D JUMP JUMPDEST PUSH2 0xAE2 DUP2 DUP6 PUSH2 0xA78 JUMP JUMPDEST SWAP4 POP PUSH2 0xAF2 DUP2 DUP6 PUSH1 0x20 DUP7 ADD PUSH2 0xA89 JUMP JUMPDEST PUSH2 0xAFB DUP2 PUSH2 0xABC JUMP JUMPDEST DUP5 ADD SWAP2 POP POP SWAP3 SWAP2 POP POP JUMP JUMPDEST PUSH1 0x0 PUSH1 0xA0 DUP3 ADD SWAP1 POP DUP2 DUP2 SUB PUSH1 0x0 DUP4 ADD MSTORE PUSH2 0xB20 DUP2 DUP9 PUSH2 0xACD JUMP JUMPDEST SWAP1 POP PUSH2 0xB2F PUSH1 0x20 DUP4 ADD DUP8 PUSH2 0x898 JUMP JUMPDEST PUSH2 0xB3C PUSH1 0x40 DUP4 ADD DUP7 PUSH2 0x8F4 JUMP JUMPDEST PUSH2 0xB49 PUSH1 0x60 DUP4 ADD DUP6 PUSH2 0x9EA JUMP JUMPDEST PUSH2 0xB56 PUSH1 0x80 DUP4 ADD DUP5 PUSH2 0x898 JUMP JUMPDEST SWAP7 SWAP6 POP POP POP POP POP POP JUMP JUMPDEST PUSH1 0x0 DUP1 REVERT JUMPDEST PUSH1 0x0 DUP1 REVERT JUMPDEST PUSH32 0x4E487B7100000000000000000000000000000000000000000000000000000000 PUSH1 0x0 MSTORE PUSH1 0x41 PUSH1 0x4 MSTORE PUSH1 0x24 PUSH1 0x0 REVERT JUMPDEST PUSH2 0xBA2 DUP3 PUSH2 0xABC JUMP JUMPDEST DUP2 ADD DUP2 DUP2 LT PUSH8 0xFFFFFFFFFFFFFFFF DUP3 GT OR ISZERO PUSH2 0xBC1 JUMPI PUSH2 0xBC0 PUSH2 0xB6A JUMP JUMPDEST JUMPDEST DUP1 PUSH1 0x40 MSTORE POP POP POP JUMP JUMPDEST PUSH1 0x0 PUSH2 0xBD4 PUSH2 0x971 JUMP JUMPDEST SWAP1 POP PUSH2 0xBE0 DUP3 DUP3 PUSH2 0xB99 JUMP JUMPDEST SWAP2 SWAP1 POP JUMP JUMPDEST PUSH1 0x0 PUSH8 0xFFFFFFFFFFFFFFFF DUP3 GT ISZERO PUSH2 0xC00 JUMPI PUSH2 0xBFF PUSH2 0xB6A JUMP JUMPDEST JUMPDEST PUSH2 0xC09 DUP3 PUSH2 0xABC JUMP JUMPDEST SWAP1 POP PUSH1 0x20 DUP2 ADD SWAP1 POP SWAP2 SWAP1 POP JUMP JUMPDEST DUP3 DUP2 DUP4 CALLDATACOPY PUSH1 0x0 DUP4 DUP4 ADD MSTORE POP POP POP JUMP JUMPDEST PUSH1 0x0 PUSH2 0xC38 PUSH2 0xC33 DUP5 PUSH2 0xBE5 JUMP JUMPDEST PUSH2 0xBCA JUMP JUMPDEST SWAP1 POP DUP3 DUP2 MSTORE PUSH1 0x20 DUP2 ADD DUP5 DUP5 DUP5 ADD GT ISZERO PUSH2 0xC54 JUMPI PUSH2 0xC53 PUSH2 0xB65 JUMP JUMPDEST JUMPDEST PUSH2 0xC5F DUP5 DUP3 DUP6 PUSH2 0xC16 JUMP JUMPDEST POP SWAP4 SWAP3 POP POP POP JUMP JUMPDEST PUSH1 0x0 DUP3 PUSH1 0x1F DUP4 ADD SLT PUSH2 0xC7C JUMPI PUSH2 0xC7B PUSH2 0xB60 JUMP JUMPDEST JUMPDEST DUP2 CALLDATALOAD PUSH2 0xC8C DUP5 DUP3 PUSH1 0x20 DUP7 ADD PUSH2 0xC25 JUMP JUMPDEST SWAP2 POP POP SWAP3 SWAP2 POP POP JUMP JUMPDEST PUSH1 0x0 DUP1 PUSH1 0x0 PUSH1 0x60 DUP5 DUP7 SUB SLT ISZERO PUSH2 0xCAE JUMPI PUSH2 0xCAD PUSH2 0x97B JUMP JUMPDEST JUMPDEST PUSH1 0x0 DUP5 ADD CALLDATALOAD PUSH8 0xFFFFFFFFFFFFFFFF DUP2 GT ISZERO PUSH2 0xCCC JUMPI PUSH2 0xCCB PUSH2 0x980 JUMP JUMPDEST JUMPDEST PUSH2 0xCD8 DUP7 DUP3 DUP8 ADD PUSH2 0xC67 JUMP JUMPDEST SWAP4 POP POP PUSH1 0x20 PUSH2 0xCE9 DUP7 DUP3 DUP8 ADD PUSH2 0xA2B JUMP JUMPDEST SWAP3 POP POP PUSH1 0x40 PUSH2 0xCFA DUP7 DUP3 DUP8 ADD PUSH2 0x99C JUMP JUMPDEST SWAP2 POP POP SWAP3 POP SWAP3 POP SWAP3 JUMP JUMPDEST PUSH32 0x4E487B7100000000000000000000000000000000000000000000000000000000 PUSH1 0x0 MSTORE PUSH1 0x22 PUSH1 0x4 MSTORE PUSH1 0x24 PUSH1 0x0 REVERT JUMPDEST PUSH1 0x0 PUSH1 0x2 DUP3 DIV SWAP1 POP PUSH1 0x1 DUP3 AND DUP1 PUSH2 0xD4B JUMPI PUSH1 0x7F DUP3 AND SWAP2 POP JUMPDEST PUSH1 0x20 DUP3 LT DUP2 EQ ISZERO PUSH2 0xD5F JUMPI PUSH2 0xD5E PUSH2 0xD04 JUMP JUMPDEST JUMPDEST POP SWAP2 SWAP1 POP JUMP JUMPDEST PUSH32 0x4E487B7100000000000000000000000000000000000000000000000000000000 PUSH1 0x0 MSTORE PUSH1 0x32 PUSH1 0x4 MSTORE PUSH1 0x24 PUSH1 0x0 REVERT JUMPDEST PUSH32 0x4E487B7100000000000000000000000000000000000000000000000000000000 PUSH1 0x0 MSTORE PUSH1 0x11 PUSH1 0x4 MSTORE PUSH1 0x24 PUSH1 0x0 REVERT JUMPDEST PUSH1 0x0 PUSH2 0xDCE DUP3 PUSH2 0x88E JUMP JUMPDEST SWAP2 POP PUSH32 0xFFFFFFFFFFFFFFFFFFFFFFFFFFFFFFFFFFFFFFFFFFFFFFFFFFFFFFFFFFFFFFFF DUP3 EQ ISZERO PUSH2 0xE01 JUMPI PUSH2 0xE00 PUSH2 0xD94 JUMP JUMPDEST JUMPDEST PUSH1 0x1 DUP3 ADD SWAP1 POP SWAP2 SWAP1 POP JUMP JUMPDEST PUSH32 0x4E487B7100000000000000000000000000000000000000000000000000000000 PUSH1 0x0 MSTORE PUSH1 0x12 PUSH1 0x4 MSTORE PUSH1 0x24 PUSH1 0x0 REVERT JUMPDEST PUSH1 0x0 PUSH2 0xE46 DUP3 PUSH2 0x88E JUMP JUMPDEST SWAP2 POP PUSH2 0xE51 DUP4 PUSH2 0x88E JUMP JUMPDEST SWAP3 POP DUP3 PUSH2 0xE61 JUMPI PUSH2 0xE60 PUSH2 0xE0C JUMP JUMPDEST JUMPDEST DUP3 DUP3 DIV SWAP1 POP SWAP3 SWAP2 POP POP JUMP INVALID LOG2 PUSH5 0x6970667358 0x22 SLT KECCAK256 SGT DUP14 0xC4 0xE3 0xC7 LOG1 0xAA 0x28 0xE3 0xB6 0xE9 0xF8 0xAE 0xDB SLT BASEFEE PUSH15 0x64C4A8C2219F1301BF290E3AF6F1BC PUSH5 0x736F6C6343 STOP ADDMOD MULMOD STOP CALLER "},"gasEstimates":{"creation":{"codeDepositCost":"749200","executionCost":"infinite","totalCost":"infinite"},"external":{"approveRequest(uint256)":"infinite","createRequest(string,uint256,address)":"infinite","finaliseRequest(uint256)":"infinite","getRequestsCount()":"2446","getSummary()":"infinite","invest()":"51068","investorCount()":"2495","investors(address)":"2912","manager()":"2559","minimumAmount()":"2451","requests(uint256)":"infinite"}},"methodIdentifiers":{"approveRequest(uint256)":"d7d1bbdb","createRequest(string,uint256,address)":"8a9cfd55","finaliseRequest(uint256)":"e7b668b4","getRequestsCount()":"3410452a","getSummary()":"4051ddac","invest()":"e8b5e51f","investorCount()":"d7e64c00","investors(address)":"6f7bc9be","manager()":"481c6a75","minimumAmount()":"bb0c8298","requests(uint256)":"81d12c58"}},"storageLayout":{"storage":[{"astId":61,"contract":"Campaign.sol:Startup","label":"requests","offset":0,"slot":"0","type":"t_array(t_struct(Request)57_storage)dyn_storage"},{"astId":63,"contract":"Campaign.sol:Startup","label":"manager","offset":0,"slot":"1","type":"t_address"},{"astId":65,"contract":"Campaign.sol:Startup","label":"minimumAmount","offset":0,"slot":"2","type":"t_uint256"},{"astId":69,"contract":"Campaign.sol:Startup","label":"investors","offset":0,"slot":"3","type":"t_mapping(t_address,t_bool)"},{"astId":71,"contract":"Campaign.sol:Startup","label":"investorCount","offset":0,"slot":"4","type":"t_uint256"}],"types":{"t_address":{"encoding":"inplace","label":"address","numberOfBytes":"20"},"t_array(t_struct(Request)57_storage)dyn_storage":{"base":"t_struct(Request)57_storage","encoding":"dynamic_array","label":"struct Startup.Request[]","numberOfBytes":"32"},"t_bool":{"encoding":"inplace","label":"bool","numberOfBytes":"1"},"t_mapping(t_address,t_bool)":{"encoding":"mapping","key":"t_address","label":"mapping(address => bool)","numberOfBytes":"32","value":"t_bool"},"t_string_storage":{"encoding":"bytes","label":"string","numberOfBytes":"32"},"t_struct(Request)57_storage":{"encoding":"inplace","label":"struct Startup.Request","members":[{"astId":44,"contract":"Campaign.sol:Startup","label":"description","offset":0,"slot":"0","type":"t_string_storage"},{"astId":46,"contract":"Campaign.sol:Startup","label":"value","offset":0,"slot":"1","type":"t_uint256"},{"astId":48,"contract":"Campaign.sol:Startup","label":"recipient","offset":0,"slot":"2","type":"t_address"},{"astId":50,"contract":"Campaign.sol:Startup","label":"status","offset":20,"slot":"2","type":"t_bool"},{"astId":52,"contract":"Campaign.sol:Startup","label":"approvalCount","offset":0,"slot":"3","type":"t_uint256"},{"astId":56,"contract":"Campaign.sol:Startup","label":"approvals","offset":0,"slot":"4","type":"t_mapping(t_address,t_bool)"}],"numberOfBytes":"160"},"t_uint256":{"encoding":"inplace","label":"uint256","numberOfBytes":"32"}}},"userdoc":{"kind":"user","methods":{},"version":1}}